{
	"NFTStakingModule.sol": {
		"NFTStakingModule": {
			"abi": [
				{
					"inputs": [
						{
							"internalType": "address",
							"name": "_nftContract",
							"type": "address"
						},
						{
							"internalType": "address",
							"name": "_token",
							"type": "address"
						}
					],
					"stateMutability": "nonpayable",
					"type": "constructor"
				},
				{
					"anonymous": false,
					"inputs": [
						{
							"indexed": true,
							"internalType": "address",
							"name": "user",
							"type": "address"
						},
						{
							"indexed": false,
							"internalType": "uint256",
							"name": "tokenId",
							"type": "uint256"
						}
					],
					"name": "NFTStaked",
					"type": "event"
				},
				{
					"anonymous": false,
					"inputs": [
						{
							"indexed": true,
							"internalType": "address",
							"name": "user",
							"type": "address"
						},
						{
							"indexed": false,
							"internalType": "uint256",
							"name": "tokenId",
							"type": "uint256"
						},
						{
							"indexed": false,
							"internalType": "uint256",
							"name": "reward",
							"type": "uint256"
						}
					],
					"name": "NFTUnstaked",
					"type": "event"
				},
				{
					"inputs": [],
					"name": "RATE_DENOMINATOR",
					"outputs": [
						{
							"internalType": "uint256",
							"name": "",
							"type": "uint256"
						}
					],
					"stateMutability": "view",
					"type": "function"
				},
				{
					"inputs": [
						{
							"internalType": "address",
							"name": "user",
							"type": "address"
						}
					],
					"name": "calculateReward",
					"outputs": [
						{
							"internalType": "uint256",
							"name": "",
							"type": "uint256"
						}
					],
					"stateMutability": "view",
					"type": "function"
				},
				{
					"inputs": [],
					"name": "nftContract",
					"outputs": [
						{
							"internalType": "contract IERC721",
							"name": "",
							"type": "address"
						}
					],
					"stateMutability": "view",
					"type": "function"
				},
				{
					"inputs": [],
					"name": "rewardRate",
					"outputs": [
						{
							"internalType": "uint256",
							"name": "",
							"type": "uint256"
						}
					],
					"stateMutability": "view",
					"type": "function"
				},
				{
					"inputs": [
						{
							"internalType": "uint256",
							"name": "tokenId",
							"type": "uint256"
						}
					],
					"name": "stakeNFT",
					"outputs": [],
					"stateMutability": "nonpayable",
					"type": "function"
				},
				{
					"inputs": [
						{
							"internalType": "address",
							"name": "",
							"type": "address"
						}
					],
					"name": "stakes",
					"outputs": [
						{
							"internalType": "uint256",
							"name": "tokenId",
							"type": "uint256"
						},
						{
							"internalType": "uint256",
							"name": "timestamp",
							"type": "uint256"
						},
						{
							"internalType": "uint256",
							"name": "accumulatedReward",
							"type": "uint256"
						}
					],
					"stateMutability": "view",
					"type": "function"
				},
				{
					"inputs": [],
					"name": "token",
					"outputs": [
						{
							"internalType": "contract IERC20",
							"name": "",
							"type": "address"
						}
					],
					"stateMutability": "view",
					"type": "function"
				},
				{
					"inputs": [],
					"name": "unstakeNFT",
					"outputs": [],
					"stateMutability": "nonpayable",
					"type": "function"
				}
			],
			"devdoc": {
				"kind": "dev",
				"methods": {},
				"version": 1
			},
			"evm": {
				"assembly": "    /* \"NFTStakingModule.sol\":238:2504  contract NFTStakingModule is ReentrancyGuard {... */\n  mstore(0x40, 0x80)\n    /* \"NFTStakingModule.sol\":374:376  50 */\n  0x32\n    /* \"NFTStakingModule.sol\":346:376  uint256 public rewardRate = 50 */\n  0x03\n  sstore\n    /* \"NFTStakingModule.sol\":761:895  constructor(address _nftContract, address _token) {... */\n  callvalue\n  dup1\n  iszero\n  tag_1\n  jumpi\n  0x00\n  dup1\n  revert\ntag_1:\n  pop\n  mload(0x40)\n  sub(codesize, bytecodeSize)\n  dup1\n  bytecodeSize\n  dup4\n  codecopy\n  dup2\n  dup2\n  add\n  0x40\n  mstore\n  dup2\n  add\n  swap1\n  tag_2\n  swap2\n  swap1\n  tag_3\n  jump\t// in\ntag_2:\n    /* \"@openzeppelin/contracts/security/ReentrancyGuard.sol\":1716:1717  1 */\n  0x01\n    /* \"@openzeppelin/contracts/security/ReentrancyGuard.sol\":1821:1828  _status */\n  0x00\n    /* \"@openzeppelin/contracts/security/ReentrancyGuard.sol\":1821:1843  _status = _NOT_ENTERED */\n  dup2\n  swap1\n  sstore\n  pop\n    /* \"NFTStakingModule.sol\":843:855  _nftContract */\n  dup2\n    /* \"NFTStakingModule.sol\":821:832  nftContract */\n  0x01\n  0x00\n    /* \"NFTStakingModule.sol\":821:856  nftContract = IERC721(_nftContract) */\n  0x0100\n  exp\n  dup2\n  sload\n  dup2\n  0xffffffffffffffffffffffffffffffffffffffff\n  mul\n  not\n  and\n  swap1\n  dup4\n  0xffffffffffffffffffffffffffffffffffffffff\n  and\n  mul\n  or\n  swap1\n  sstore\n  pop\n    /* \"NFTStakingModule.sol\":881:887  _token */\n  dup1\n    /* \"NFTStakingModule.sol\":866:871  token */\n  0x02\n  0x00\n    /* \"NFTStakingModule.sol\":866:888  token = IERC20(_token) */\n  0x0100\n  exp\n  dup2\n  sload\n  dup2\n  0xffffffffffffffffffffffffffffffffffffffff\n  mul\n  not\n  and\n  swap1\n  dup4\n  0xffffffffffffffffffffffffffffffffffffffff\n  and\n  mul\n  or\n  swap1\n  sstore\n  pop\n    /* \"NFTStakingModule.sol\":761:895  constructor(address _nftContract, address _token) {... */\n  pop\n  pop\n    /* \"NFTStakingModule.sol\":238:2504  contract NFTStakingModule is ReentrancyGuard {... */\n  jump(tag_8)\n    /* \"#utility.yul\":88:205   */\ntag_10:\n    /* \"#utility.yul\":197:198   */\n  0x00\n    /* \"#utility.yul\":194:195   */\n  dup1\n    /* \"#utility.yul\":187:199   */\n  revert\n    /* \"#utility.yul\":334:460   */\ntag_12:\n    /* \"#utility.yul\":371:378   */\n  0x00\n    /* \"#utility.yul\":411:453   */\n  0xffffffffffffffffffffffffffffffffffffffff\n    /* \"#utility.yul\":404:409   */\n  dup3\n    /* \"#utility.yul\":400:454   */\n  and\n    /* \"#utility.yul\":389:454   */\n  swap1\n  pop\n    /* \"#utility.yul\":334:460   */\n  swap2\n  swap1\n  pop\n  jump\t// out\n    /* \"#utility.yul\":466:562   */\ntag_13:\n    /* \"#utility.yul\":503:510   */\n  0x00\n    /* \"#utility.yul\":532:556   */\n  tag_22\n    /* \"#utility.yul\":550:555   */\n  dup3\n    /* \"#utility.yul\":532:556   */\n  tag_12\n  jump\t// in\ntag_22:\n    /* \"#utility.yul\":521:556   */\n  swap1\n  pop\n    /* \"#utility.yul\":466:562   */\n  swap2\n  swap1\n  pop\n  jump\t// out\n    /* \"#utility.yul\":568:690   */\ntag_14:\n    /* \"#utility.yul\":641:665   */\n  tag_24\n    /* \"#utility.yul\":659:664   */\n  dup2\n    /* \"#utility.yul\":641:665   */\n  tag_13\n  jump\t// in\ntag_24:\n    /* \"#utility.yul\":634:639   */\n  dup2\n    /* \"#utility.yul\":631:666   */\n  eq\n    /* \"#utility.yul\":621:684   */\n  tag_25\n  jumpi\n    /* \"#utility.yul\":680:681   */\n  0x00\n    /* \"#utility.yul\":677:678   */\n  dup1\n    /* \"#utility.yul\":670:682   */\n  revert\n    /* \"#utility.yul\":621:684   */\ntag_25:\n    /* \"#utility.yul\":568:690   */\n  pop\n  jump\t// out\n    /* \"#utility.yul\":696:839   */\ntag_15:\n    /* \"#utility.yul\":753:758   */\n  0x00\n    /* \"#utility.yul\":784:790   */\n  dup2\n    /* \"#utility.yul\":778:791   */\n  mload\n    /* \"#utility.yul\":769:791   */\n  swap1\n  pop\n    /* \"#utility.yul\":800:833   */\n  tag_27\n    /* \"#utility.yul\":827:832   */\n  dup2\n    /* \"#utility.yul\":800:833   */\n  tag_14\n  jump\t// in\ntag_27:\n    /* \"#utility.yul\":696:839   */\n  swap3\n  swap2\n  pop\n  pop\n  jump\t// out\n    /* \"#utility.yul\":845:1352   */\ntag_3:\n    /* \"#utility.yul\":924:930   */\n  0x00\n    /* \"#utility.yul\":932:938   */\n  dup1\n    /* \"#utility.yul\":981:983   */\n  0x40\n    /* \"#utility.yul\":969:978   */\n  dup4\n    /* \"#utility.yul\":960:967   */\n  dup6\n    /* \"#utility.yul\":956:979   */\n  sub\n    /* \"#utility.yul\":952:984   */\n  slt\n    /* \"#utility.yul\":949:1068   */\n  iszero\n  tag_29\n  jumpi\n    /* \"#utility.yul\":987:1066   */\n  tag_30\n  tag_10\n  jump\t// in\ntag_30:\n    /* \"#utility.yul\":949:1068   */\ntag_29:\n    /* \"#utility.yul\":1107:1108   */\n  0x00\n    /* \"#utility.yul\":1132:1196   */\n  tag_31\n    /* \"#utility.yul\":1188:1195   */\n  dup6\n    /* \"#utility.yul\":1179:1185   */\n  dup3\n    /* \"#utility.yul\":1168:1177   */\n  dup7\n    /* \"#utility.yul\":1164:1186   */\n  add\n    /* \"#utility.yul\":1132:1196   */\n  tag_15\n  jump\t// in\ntag_31:\n    /* \"#utility.yul\":1122:1196   */\n  swap3\n  pop\n    /* \"#utility.yul\":1078:1206   */\n  pop\n    /* \"#utility.yul\":1245:1247   */\n  0x20\n    /* \"#utility.yul\":1271:1335   */\n  tag_32\n    /* \"#utility.yul\":1327:1334   */\n  dup6\n    /* \"#utility.yul\":1318:1324   */\n  dup3\n    /* \"#utility.yul\":1307:1316   */\n  dup7\n    /* \"#utility.yul\":1303:1325   */\n  add\n    /* \"#utility.yul\":1271:1335   */\n  tag_15\n  jump\t// in\ntag_32:\n    /* \"#utility.yul\":1261:1335   */\n  swap2\n  pop\n    /* \"#utility.yul\":1216:1345   */\n  pop\n    /* \"#utility.yul\":845:1352   */\n  swap3\n  pop\n  swap3\n  swap1\n  pop\n  jump\t// out\n    /* \"NFTStakingModule.sol\":238:2504  contract NFTStakingModule is ReentrancyGuard {... */\ntag_8:\n  dataSize(sub_0)\n  dup1\n  dataOffset(sub_0)\n  0x00\n  codecopy\n  0x00\n  return\nstop\n\nsub_0: assembly {\n        /* \"NFTStakingModule.sol\":238:2504  contract NFTStakingModule is ReentrancyGuard {... */\n      mstore(0x40, 0x80)\n      callvalue\n      dup1\n      iszero\n      tag_1\n      jumpi\n      0x00\n      dup1\n      revert\n    tag_1:\n      pop\n      jumpi(tag_2, lt(calldatasize, 0x04))\n      shr(0xe0, calldataload(0x00))\n      dup1\n      0xd56d229d\n      gt\n      tag_11\n      jumpi\n      dup1\n      0xd56d229d\n      eq\n      tag_7\n      jumpi\n      dup1\n      0xd82e3962\n      eq\n      tag_8\n      jumpi\n      dup1\n      0xe0a747fe\n      eq\n      tag_9\n      jumpi\n      dup1\n      0xfc0c546a\n      eq\n      tag_10\n      jumpi\n      jump(tag_2)\n    tag_11:\n      dup1\n      0x16934fc4\n      eq\n      tag_3\n      jumpi\n      dup1\n      0x6eb604e0\n      eq\n      tag_4\n      jumpi\n      dup1\n      0x7b0a47ee\n      eq\n      tag_5\n      jumpi\n      dup1\n      0x7efad8e0\n      eq\n      tag_6\n      jumpi\n    tag_2:\n      0x00\n      dup1\n      revert\n        /* \"NFTStakingModule.sol\":573:615  mapping(address => NFTStake) public stakes */\n    tag_3:\n      tag_12\n      0x04\n      dup1\n      calldatasize\n      sub\n      dup2\n      add\n      swap1\n      tag_13\n      swap2\n      swap1\n      tag_14\n      jump\t// in\n    tag_13:\n      tag_15\n      jump\t// in\n    tag_12:\n      mload(0x40)\n      tag_16\n      swap4\n      swap3\n      swap2\n      swap1\n      tag_17\n      jump\t// in\n    tag_16:\n      mload(0x40)\n      dup1\n      swap2\n      sub\n      swap1\n      return\n        /* \"NFTStakingModule.sol\":901:1473  function stakeNFT(uint256 tokenId) external nonReentrant {... */\n    tag_4:\n      tag_18\n      0x04\n      dup1\n      calldatasize\n      sub\n      dup2\n      add\n      swap1\n      tag_19\n      swap2\n      swap1\n      tag_20\n      jump\t// in\n    tag_19:\n      tag_21\n      jump\t// in\n    tag_18:\n      stop\n        /* \"NFTStakingModule.sol\":346:376  uint256 public rewardRate = 50 */\n    tag_5:\n      tag_22\n      tag_23\n      jump\t// in\n    tag_22:\n      mload(0x40)\n      tag_24\n      swap2\n      swap1\n      tag_25\n      jump\t// in\n    tag_24:\n      mload(0x40)\n      dup1\n      swap2\n      sub\n      swap1\n      return\n        /* \"NFTStakingModule.sol\":402:450  uint256 public constant RATE_DENOMINATOR = 10000 */\n    tag_6:\n      tag_26\n      tag_27\n      jump\t// in\n    tag_26:\n      mload(0x40)\n      tag_28\n      swap2\n      swap1\n      tag_25\n      jump\t// in\n    tag_28:\n      mload(0x40)\n      dup1\n      swap2\n      sub\n      swap1\n      return\n        /* \"NFTStakingModule.sol\":289:315  IERC721 public nftContract */\n    tag_7:\n      tag_29\n      tag_30\n      jump\t// in\n    tag_29:\n      mload(0x40)\n      tag_31\n      swap2\n      swap1\n      tag_32\n      jump\t// in\n    tag_31:\n      mload(0x40)\n      dup1\n      swap2\n      sub\n      swap1\n      return\n        /* \"NFTStakingModule.sol\":2188:2502  function calculateReward(address user) public view returns (uint256) {... */\n    tag_8:\n      tag_33\n      0x04\n      dup1\n      calldatasize\n      sub\n      dup2\n      add\n      swap1\n      tag_34\n      swap2\n      swap1\n      tag_14\n      jump\t// in\n    tag_34:\n      tag_35\n      jump\t// in\n    tag_33:\n      mload(0x40)\n      tag_36\n      swap2\n      swap1\n      tag_25\n      jump\t// in\n    tag_36:\n      mload(0x40)\n      dup1\n      swap2\n      sub\n      swap1\n      return\n        /* \"NFTStakingModule.sol\":1479:2182  function unstakeNFT() external nonReentrant {... */\n    tag_9:\n      tag_37\n      tag_38\n      jump\t// in\n    tag_37:\n      stop\n        /* \"NFTStakingModule.sol\":321:340  IERC20 public token */\n    tag_10:\n      tag_39\n      tag_40\n      jump\t// in\n    tag_39:\n      mload(0x40)\n      tag_41\n      swap2\n      swap1\n      tag_42\n      jump\t// in\n    tag_41:\n      mload(0x40)\n      dup1\n      swap2\n      sub\n      swap1\n      return\n        /* \"NFTStakingModule.sol\":573:615  mapping(address => NFTStake) public stakes */\n    tag_15:\n      mstore(0x20, 0x04)\n      dup1\n      0x00\n      mstore\n      keccak256(0x00, 0x40)\n      0x00\n      swap2\n      pop\n      swap1\n      pop\n      dup1\n      0x00\n      add\n      sload\n      swap1\n      dup1\n      0x01\n      add\n      sload\n      swap1\n      dup1\n      0x02\n      add\n      sload\n      swap1\n      pop\n      dup4\n      jump\t// out\n        /* \"NFTStakingModule.sol\":901:1473  function stakeNFT(uint256 tokenId) external nonReentrant {... */\n    tag_21:\n        /* \"@openzeppelin/contracts/security/ReentrancyGuard.sol\":2261:2282  _nonReentrantBefore() */\n      tag_44\n        /* \"@openzeppelin/contracts/security/ReentrancyGuard.sol\":2261:2280  _nonReentrantBefore */\n      tag_45\n        /* \"@openzeppelin/contracts/security/ReentrancyGuard.sol\":2261:2282  _nonReentrantBefore() */\n      jump\t// in\n    tag_44:\n        /* \"NFTStakingModule.sol\":1008:1018  msg.sender */\n      caller\n        /* \"NFTStakingModule.sol\":976:1018  nftContract.ownerOf(tokenId) == msg.sender */\n      0xffffffffffffffffffffffffffffffffffffffff\n      and\n        /* \"NFTStakingModule.sol\":976:987  nftContract */\n      0x01\n      0x00\n      swap1\n      sload\n      swap1\n      0x0100\n      exp\n      swap1\n      div\n      0xffffffffffffffffffffffffffffffffffffffff\n      and\n        /* \"NFTStakingModule.sol\":976:995  nftContract.ownerOf */\n      0xffffffffffffffffffffffffffffffffffffffff\n      and\n      0x6352211e\n        /* \"NFTStakingModule.sol\":996:1003  tokenId */\n      dup4\n        /* \"NFTStakingModule.sol\":976:1004  nftContract.ownerOf(tokenId) */\n      mload(0x40)\n      dup3\n      0xffffffff\n      and\n      0xe0\n      shl\n      dup2\n      mstore\n      0x04\n      add\n      tag_47\n      swap2\n      swap1\n      tag_25\n      jump\t// in\n    tag_47:\n      0x20\n      mload(0x40)\n      dup1\n      dup4\n      sub\n      dup2\n      dup7\n      gas\n      staticcall\n      iszero\n      dup1\n      iszero\n      tag_49\n      jumpi\n      returndatasize\n      0x00\n      dup1\n      returndatacopy\n      revert(0x00, returndatasize)\n    tag_49:\n      pop\n      pop\n      pop\n      pop\n      mload(0x40)\n      returndatasize\n      not(0x1f)\n      0x1f\n      dup3\n      add\n      and\n      dup3\n      add\n      dup1\n      0x40\n      mstore\n      pop\n      dup2\n      add\n      swap1\n      tag_50\n      swap2\n      swap1\n      tag_51\n      jump\t// in\n    tag_50:\n        /* \"NFTStakingModule.sol\":976:1018  nftContract.ownerOf(tokenId) == msg.sender */\n      0xffffffffffffffffffffffffffffffffffffffff\n      and\n      eq\n        /* \"NFTStakingModule.sol\":968:1032  require(nftContract.ownerOf(tokenId) == msg.sender, \"Not owner\") */\n      tag_52\n      jumpi\n      mload(0x40)\n      0x08c379a000000000000000000000000000000000000000000000000000000000\n      dup2\n      mstore\n      0x04\n      add\n      tag_53\n      swap1\n      tag_54\n      jump\t// in\n    tag_53:\n      mload(0x40)\n      dup1\n      swap2\n      sub\n      swap1\n      revert\n    tag_52:\n        /* \"NFTStakingModule.sol\":1042:1053  nftContract */\n      0x01\n      0x00\n      swap1\n      sload\n      swap1\n      0x0100\n      exp\n      swap1\n      div\n      0xffffffffffffffffffffffffffffffffffffffff\n      and\n        /* \"NFTStakingModule.sol\":1042:1066  nftContract.transferFrom */\n      0xffffffffffffffffffffffffffffffffffffffff\n      and\n      0x23b872dd\n        /* \"NFTStakingModule.sol\":1067:1077  msg.sender */\n      caller\n        /* \"NFTStakingModule.sol\":1087:1091  this */\n      address\n        /* \"NFTStakingModule.sol\":1094:1101  tokenId */\n      dup5\n        /* \"NFTStakingModule.sol\":1042:1102  nftContract.transferFrom(msg.sender, address(this), tokenId) */\n      mload(0x40)\n      dup5\n      0xffffffff\n      and\n      0xe0\n      shl\n      dup2\n      mstore\n      0x04\n      add\n      tag_55\n      swap4\n      swap3\n      swap2\n      swap1\n      tag_56\n      jump\t// in\n    tag_55:\n      0x00\n      mload(0x40)\n      dup1\n      dup4\n      sub\n      dup2\n      0x00\n      dup8\n      dup1\n      extcodesize\n      iszero\n      dup1\n      iszero\n      tag_57\n      jumpi\n      0x00\n      dup1\n      revert\n    tag_57:\n      pop\n      gas\n      call\n      iszero\n      dup1\n      iszero\n      tag_59\n      jumpi\n      returndatasize\n      0x00\n      dup1\n      returndatacopy\n      revert(0x00, returndatasize)\n    tag_59:\n      pop\n      pop\n      pop\n      pop\n        /* \"NFTStakingModule.sol\":1168:1194  NFTStake storage userStake */\n      0x00\n        /* \"NFTStakingModule.sol\":1197:1203  stakes */\n      0x04\n        /* \"NFTStakingModule.sol\":1197:1215  stakes[msg.sender] */\n      0x00\n        /* \"NFTStakingModule.sol\":1204:1214  msg.sender */\n      caller\n        /* \"NFTStakingModule.sol\":1197:1215  stakes[msg.sender] */\n      0xffffffffffffffffffffffffffffffffffffffff\n      and\n      0xffffffffffffffffffffffffffffffffffffffff\n      and\n      dup2\n      mstore\n      0x20\n      add\n      swap1\n      dup2\n      mstore\n      0x20\n      add\n      0x00\n      keccak256\n        /* \"NFTStakingModule.sol\":1168:1215  NFTStake storage userStake = stakes[msg.sender] */\n      swap1\n      pop\n        /* \"NFTStakingModule.sol\":1250:1251  0 */\n      0x00\n        /* \"NFTStakingModule.sol\":1229:1238  userStake */\n      dup2\n        /* \"NFTStakingModule.sol\":1229:1246  userStake.tokenId */\n      0x00\n      add\n      sload\n        /* \"NFTStakingModule.sol\":1229:1251  userStake.tokenId != 0 */\n      eq\n        /* \"NFTStakingModule.sol\":1225:1336  if (userStake.tokenId != 0) {... */\n      tag_60\n      jumpi\n        /* \"NFTStakingModule.sol\":1298:1325  calculateReward(msg.sender) */\n      tag_61\n        /* \"NFTStakingModule.sol\":1314:1324  msg.sender */\n      caller\n        /* \"NFTStakingModule.sol\":1298:1313  calculateReward */\n      tag_35\n        /* \"NFTStakingModule.sol\":1298:1325  calculateReward(msg.sender) */\n      jump\t// in\n    tag_61:\n        /* \"NFTStakingModule.sol\":1267:1276  userStake */\n      dup2\n        /* \"NFTStakingModule.sol\":1267:1294  userStake.accumulatedReward */\n      0x02\n      add\n      0x00\n        /* \"NFTStakingModule.sol\":1267:1325  userStake.accumulatedReward += calculateReward(msg.sender) */\n      dup3\n      dup3\n      sload\n      tag_62\n      swap2\n      swap1\n      tag_63\n      jump\t// in\n    tag_62:\n      swap3\n      pop\n      pop\n      dup2\n      swap1\n      sstore\n      pop\n        /* \"NFTStakingModule.sol\":1225:1336  if (userStake.tokenId != 0) {... */\n    tag_60:\n        /* \"NFTStakingModule.sol\":1366:1373  tokenId */\n      dup2\n        /* \"NFTStakingModule.sol\":1346:1355  userStake */\n      dup2\n        /* \"NFTStakingModule.sol\":1346:1363  userStake.tokenId */\n      0x00\n      add\n        /* \"NFTStakingModule.sol\":1346:1373  userStake.tokenId = tokenId */\n      dup2\n      swap1\n      sstore\n      pop\n        /* \"NFTStakingModule.sol\":1405:1420  block.timestamp */\n      timestamp\n        /* \"NFTStakingModule.sol\":1383:1392  userStake */\n      dup2\n        /* \"NFTStakingModule.sol\":1383:1402  userStake.timestamp */\n      0x01\n      add\n        /* \"NFTStakingModule.sol\":1383:1420  userStake.timestamp = block.timestamp */\n      dup2\n      swap1\n      sstore\n      pop\n        /* \"NFTStakingModule.sol\":1446:1456  msg.sender */\n      caller\n        /* \"NFTStakingModule.sol\":1436:1466  NFTStaked(msg.sender, tokenId) */\n      0xffffffffffffffffffffffffffffffffffffffff\n      and\n      0x0cda5cf38f6592672c7b4a22ff3d50874d1913629bd5ffedc27b7b40503d60fd\n        /* \"NFTStakingModule.sol\":1458:1465  tokenId */\n      dup4\n        /* \"NFTStakingModule.sol\":1436:1466  NFTStaked(msg.sender, tokenId) */\n      mload(0x40)\n      tag_64\n      swap2\n      swap1\n      tag_25\n      jump\t// in\n    tag_64:\n      mload(0x40)\n      dup1\n      swap2\n      sub\n      swap1\n      log2\n        /* \"NFTStakingModule.sol\":958:1473  {... */\n      pop\n        /* \"@openzeppelin/contracts/security/ReentrancyGuard.sol\":2303:2323  _nonReentrantAfter() */\n      tag_65\n        /* \"@openzeppelin/contracts/security/ReentrancyGuard.sol\":2303:2321  _nonReentrantAfter */\n      tag_66\n        /* \"@openzeppelin/contracts/security/ReentrancyGuard.sol\":2303:2323  _nonReentrantAfter() */\n      jump\t// in\n    tag_65:\n        /* \"NFTStakingModule.sol\":901:1473  function stakeNFT(uint256 tokenId) external nonReentrant {... */\n      pop\n      jump\t// out\n        /* \"NFTStakingModule.sol\":346:376  uint256 public rewardRate = 50 */\n    tag_23:\n      sload(0x03)\n      dup2\n      jump\t// out\n        /* \"NFTStakingModule.sol\":402:450  uint256 public constant RATE_DENOMINATOR = 10000 */\n    tag_27:\n        /* \"NFTStakingModule.sol\":445:450  10000 */\n      0x2710\n        /* \"NFTStakingModule.sol\":402:450  uint256 public constant RATE_DENOMINATOR = 10000 */\n      dup2\n      jump\t// out\n        /* \"NFTStakingModule.sol\":289:315  IERC721 public nftContract */\n    tag_30:\n      0x01\n      0x00\n      swap1\n      sload\n      swap1\n      0x0100\n      exp\n      swap1\n      div\n      0xffffffffffffffffffffffffffffffffffffffff\n      and\n      dup2\n      jump\t// out\n        /* \"NFTStakingModule.sol\":2188:2502  function calculateReward(address user) public view returns (uint256) {... */\n    tag_35:\n        /* \"NFTStakingModule.sol\":2248:2255  uint256 */\n      0x00\n        /* \"NFTStakingModule.sol\":2267:2292  NFTStake memory userStake */\n      dup1\n        /* \"NFTStakingModule.sol\":2295:2301  stakes */\n      0x04\n        /* \"NFTStakingModule.sol\":2295:2307  stakes[user] */\n      0x00\n        /* \"NFTStakingModule.sol\":2302:2306  user */\n      dup5\n        /* \"NFTStakingModule.sol\":2295:2307  stakes[user] */\n      0xffffffffffffffffffffffffffffffffffffffff\n      and\n      0xffffffffffffffffffffffffffffffffffffffff\n      and\n      dup2\n      mstore\n      0x20\n      add\n      swap1\n      dup2\n      mstore\n      0x20\n      add\n      0x00\n      keccak256\n        /* \"NFTStakingModule.sol\":2267:2307  NFTStake memory userStake = stakes[user] */\n      mload(0x40)\n      dup1\n      0x60\n      add\n      0x40\n      mstore\n      swap1\n      dup2\n      0x00\n      dup3\n      add\n      sload\n      dup2\n      mstore\n      0x20\n      add\n      0x01\n      dup3\n      add\n      sload\n      dup2\n      mstore\n      0x20\n      add\n      0x02\n      dup3\n      add\n      sload\n      dup2\n      mstore\n      pop\n      pop\n      swap1\n      pop\n        /* \"NFTStakingModule.sol\":2342:2343  0 */\n      0x00\n        /* \"NFTStakingModule.sol\":2321:2330  userStake */\n      dup2\n        /* \"NFTStakingModule.sol\":2321:2338  userStake.tokenId */\n      0x00\n      add\n      mload\n        /* \"NFTStakingModule.sol\":2321:2343  userStake.tokenId == 0 */\n      sub\n        /* \"NFTStakingModule.sol\":2317:2353  if (userStake.tokenId == 0) return 0 */\n      tag_68\n      jumpi\n        /* \"NFTStakingModule.sol\":2352:2353  0 */\n      0x00\n        /* \"NFTStakingModule.sol\":2345:2353  return 0 */\n      swap2\n      pop\n      pop\n      jump(tag_67)\n        /* \"NFTStakingModule.sol\":2317:2353  if (userStake.tokenId == 0) return 0 */\n    tag_68:\n        /* \"NFTStakingModule.sol\":2363:2382  uint256 timeElapsed */\n      0x00\n        /* \"NFTStakingModule.sol\":2403:2412  userStake */\n      dup2\n        /* \"NFTStakingModule.sol\":2403:2422  userStake.timestamp */\n      0x20\n      add\n      mload\n        /* \"NFTStakingModule.sol\":2385:2400  block.timestamp */\n      timestamp\n        /* \"NFTStakingModule.sol\":2385:2422  block.timestamp - userStake.timestamp */\n      tag_69\n      swap2\n      swap1\n      tag_70\n      jump\t// in\n    tag_69:\n        /* \"NFTStakingModule.sol\":2363:2422  uint256 timeElapsed = block.timestamp - userStake.timestamp */\n      swap1\n      pop\n        /* \"NFTStakingModule.sol\":2488:2494  1 days */\n      0x015180\n        /* \"NFTStakingModule.sol\":445:450  10000 */\n      0x2710\n        /* \"NFTStakingModule.sol\":2469:2494  RATE_DENOMINATOR * 1 days */\n      tag_71\n      swap2\n      swap1\n      tag_72\n      jump\t// in\n    tag_71:\n        /* \"NFTStakingModule.sol\":2453:2464  timeElapsed */\n      dup2\n        /* \"NFTStakingModule.sol\":2440:2450  rewardRate */\n      sload(0x03)\n        /* \"NFTStakingModule.sol\":2440:2464  rewardRate * timeElapsed */\n      tag_73\n      swap2\n      swap1\n      tag_72\n      jump\t// in\n    tag_73:\n        /* \"NFTStakingModule.sol\":2439:2495  (rewardRate * timeElapsed) / (RATE_DENOMINATOR * 1 days) */\n      tag_74\n      swap2\n      swap1\n      tag_75\n      jump\t// in\n    tag_74:\n        /* \"NFTStakingModule.sol\":2432:2495  return (rewardRate * timeElapsed) / (RATE_DENOMINATOR * 1 days) */\n      swap3\n      pop\n      pop\n      pop\n        /* \"NFTStakingModule.sol\":2188:2502  function calculateReward(address user) public view returns (uint256) {... */\n    tag_67:\n      swap2\n      swap1\n      pop\n      jump\t// out\n        /* \"NFTStakingModule.sol\":1479:2182  function unstakeNFT() external nonReentrant {... */\n    tag_38:\n        /* \"@openzeppelin/contracts/security/ReentrancyGuard.sol\":2261:2282  _nonReentrantBefore() */\n      tag_77\n        /* \"@openzeppelin/contracts/security/ReentrancyGuard.sol\":2261:2280  _nonReentrantBefore */\n      tag_45\n        /* \"@openzeppelin/contracts/security/ReentrancyGuard.sol\":2261:2282  _nonReentrantBefore() */\n      jump\t// in\n    tag_77:\n        /* \"NFTStakingModule.sol\":1533:1559  NFTStake storage userStake */\n      0x00\n        /* \"NFTStakingModule.sol\":1562:1568  stakes */\n      0x04\n        /* \"NFTStakingModule.sol\":1562:1580  stakes[msg.sender] */\n      0x00\n        /* \"NFTStakingModule.sol\":1569:1579  msg.sender */\n      caller\n        /* \"NFTStakingModule.sol\":1562:1580  stakes[msg.sender] */\n      0xffffffffffffffffffffffffffffffffffffffff\n      and\n      0xffffffffffffffffffffffffffffffffffffffff\n      and\n      dup2\n      mstore\n      0x20\n      add\n      swap1\n      dup2\n      mstore\n      0x20\n      add\n      0x00\n      keccak256\n        /* \"NFTStakingModule.sol\":1533:1580  NFTStake storage userStake = stakes[msg.sender] */\n      swap1\n      pop\n        /* \"NFTStakingModule.sol\":1619:1620  0 */\n      0x00\n        /* \"NFTStakingModule.sol\":1598:1607  userStake */\n      dup2\n        /* \"NFTStakingModule.sol\":1598:1615  userStake.tokenId */\n      0x00\n      add\n      sload\n        /* \"NFTStakingModule.sol\":1598:1620  userStake.tokenId != 0 */\n      sub\n        /* \"NFTStakingModule.sol\":1590:1638  require(userStake.tokenId != 0, \"No NFT staked\") */\n      tag_79\n      jumpi\n      mload(0x40)\n      0x08c379a000000000000000000000000000000000000000000000000000000000\n      dup2\n      mstore\n      0x04\n      add\n      tag_80\n      swap1\n      tag_81\n      jump\t// in\n    tag_80:\n      mload(0x40)\n      dup1\n      swap2\n      sub\n      swap1\n      revert\n    tag_79:\n        /* \"NFTStakingModule.sol\":1649:1663  uint256 reward */\n      0x00\n        /* \"NFTStakingModule.sol\":1696:1705  userStake */\n      dup2\n        /* \"NFTStakingModule.sol\":1696:1723  userStake.accumulatedReward */\n      0x02\n      add\n      sload\n        /* \"NFTStakingModule.sol\":1666:1693  calculateReward(msg.sender) */\n      tag_82\n        /* \"NFTStakingModule.sol\":1682:1692  msg.sender */\n      caller\n        /* \"NFTStakingModule.sol\":1666:1681  calculateReward */\n      tag_35\n        /* \"NFTStakingModule.sol\":1666:1693  calculateReward(msg.sender) */\n      jump\t// in\n    tag_82:\n        /* \"NFTStakingModule.sol\":1666:1723  calculateReward(msg.sender) + userStake.accumulatedReward */\n      tag_83\n      swap2\n      swap1\n      tag_63\n      jump\t// in\n    tag_83:\n        /* \"NFTStakingModule.sol\":1649:1723  uint256 reward = calculateReward(msg.sender) + userStake.accumulatedReward */\n      swap1\n      pop\n        /* \"NFTStakingModule.sol\":1733:1748  uint256 tokenId */\n      0x00\n        /* \"NFTStakingModule.sol\":1751:1760  userStake */\n      dup3\n        /* \"NFTStakingModule.sol\":1751:1768  userStake.tokenId */\n      0x00\n      add\n      sload\n        /* \"NFTStakingModule.sol\":1733:1768  uint256 tokenId = userStake.tokenId */\n      swap1\n      pop\n        /* \"NFTStakingModule.sol\":1799:1800  0 */\n      0x00\n        /* \"NFTStakingModule.sol\":1779:1788  userStake */\n      dup4\n        /* \"NFTStakingModule.sol\":1779:1796  userStake.tokenId */\n      0x00\n      add\n        /* \"NFTStakingModule.sol\":1779:1800  userStake.tokenId = 0 */\n      dup2\n      swap1\n      sstore\n      pop\n        /* \"NFTStakingModule.sol\":1832:1833  0 */\n      0x00\n        /* \"NFTStakingModule.sol\":1810:1819  userStake */\n      dup4\n        /* \"NFTStakingModule.sol\":1810:1829  userStake.timestamp */\n      0x01\n      add\n        /* \"NFTStakingModule.sol\":1810:1833  userStake.timestamp = 0 */\n      dup2\n      swap1\n      sstore\n      pop\n        /* \"NFTStakingModule.sol\":1873:1874  0 */\n      0x00\n        /* \"NFTStakingModule.sol\":1843:1852  userStake */\n      dup4\n        /* \"NFTStakingModule.sol\":1843:1870  userStake.accumulatedReward */\n      0x02\n      add\n        /* \"NFTStakingModule.sol\":1843:1874  userStake.accumulatedReward = 0 */\n      dup2\n      swap1\n      sstore\n      pop\n        /* \"NFTStakingModule.sol\":1885:1896  nftContract */\n      0x01\n      0x00\n      swap1\n      sload\n      swap1\n      0x0100\n      exp\n      swap1\n      div\n      0xffffffffffffffffffffffffffffffffffffffff\n      and\n        /* \"NFTStakingModule.sol\":1885:1909  nftContract.transferFrom */\n      0xffffffffffffffffffffffffffffffffffffffff\n      and\n      0x23b872dd\n        /* \"NFTStakingModule.sol\":1918:1922  this */\n      address\n        /* \"NFTStakingModule.sol\":1925:1935  msg.sender */\n      caller\n        /* \"NFTStakingModule.sol\":1937:1944  tokenId */\n      dup5\n        /* \"NFTStakingModule.sol\":1885:1945  nftContract.transferFrom(address(this), msg.sender, tokenId) */\n      mload(0x40)\n      dup5\n      0xffffffff\n      and\n      0xe0\n      shl\n      dup2\n      mstore\n      0x04\n      add\n      tag_84\n      swap4\n      swap3\n      swap2\n      swap1\n      tag_56\n      jump\t// in\n    tag_84:\n      0x00\n      mload(0x40)\n      dup1\n      dup4\n      sub\n      dup2\n      0x00\n      dup8\n      dup1\n      extcodesize\n      iszero\n      dup1\n      iszero\n      tag_85\n      jumpi\n      0x00\n      dup1\n      revert\n    tag_85:\n      pop\n      gas\n      call\n      iszero\n      dup1\n      iszero\n      tag_87\n      jumpi\n      returndatasize\n      0x00\n      dup1\n      returndatacopy\n      revert(0x00, returndatasize)\n    tag_87:\n      pop\n      pop\n      pop\n      pop\n        /* \"NFTStakingModule.sol\":2023:2024  0 */\n      0x00\n        /* \"NFTStakingModule.sol\":2014:2020  reward */\n      dup3\n        /* \"NFTStakingModule.sol\":2014:2024  reward > 0 */\n      gt\n        /* \"NFTStakingModule.sol\":2010:2120  if (reward > 0) {... */\n      iszero\n      tag_88\n      jumpi\n        /* \"NFTStakingModule.sol\":2048:2053  token */\n      0x02\n      0x00\n      swap1\n      sload\n      swap1\n      0x0100\n      exp\n      swap1\n      div\n      0xffffffffffffffffffffffffffffffffffffffff\n      and\n        /* \"NFTStakingModule.sol\":2048:2062  token.transfer */\n      0xffffffffffffffffffffffffffffffffffffffff\n      and\n      0xa9059cbb\n        /* \"NFTStakingModule.sol\":2063:2073  msg.sender */\n      caller\n        /* \"NFTStakingModule.sol\":2075:2081  reward */\n      dup5\n        /* \"NFTStakingModule.sol\":2048:2082  token.transfer(msg.sender, reward) */\n      mload(0x40)\n      dup4\n      0xffffffff\n      and\n      0xe0\n      shl\n      dup2\n      mstore\n      0x04\n      add\n      tag_89\n      swap3\n      swap2\n      swap1\n      tag_90\n      jump\t// in\n    tag_89:\n      0x20\n      mload(0x40)\n      dup1\n      dup4\n      sub\n      dup2\n      0x00\n      dup8\n      gas\n      call\n      iszero\n      dup1\n      iszero\n      tag_92\n      jumpi\n      returndatasize\n      0x00\n      dup1\n      returndatacopy\n      revert(0x00, returndatasize)\n    tag_92:\n      pop\n      pop\n      pop\n      pop\n      mload(0x40)\n      returndatasize\n      not(0x1f)\n      0x1f\n      dup3\n      add\n      and\n      dup3\n      add\n      dup1\n      0x40\n      mstore\n      pop\n      dup2\n      add\n      swap1\n      tag_93\n      swap2\n      swap1\n      tag_94\n      jump\t// in\n    tag_93:\n        /* \"NFTStakingModule.sol\":2040:2109  require(token.transfer(msg.sender, reward), \"Reward transfer failed\") */\n      tag_95\n      jumpi\n      mload(0x40)\n      0x08c379a000000000000000000000000000000000000000000000000000000000\n      dup2\n      mstore\n      0x04\n      add\n      tag_96\n      swap1\n      tag_97\n      jump\t// in\n    tag_96:\n      mload(0x40)\n      dup1\n      swap2\n      sub\n      swap1\n      revert\n    tag_95:\n        /* \"NFTStakingModule.sol\":2010:2120  if (reward > 0) {... */\n    tag_88:\n        /* \"NFTStakingModule.sol\":2147:2157  msg.sender */\n      caller\n        /* \"NFTStakingModule.sol\":2135:2175  NFTUnstaked(msg.sender, tokenId, reward) */\n      0xffffffffffffffffffffffffffffffffffffffff\n      and\n      0xc486b9458a8637650d84d262414833a5a457bc91ae86b7da110386c8c3fa255b\n        /* \"NFTStakingModule.sol\":2159:2166  tokenId */\n      dup3\n        /* \"NFTStakingModule.sol\":2168:2174  reward */\n      dup5\n        /* \"NFTStakingModule.sol\":2135:2175  NFTUnstaked(msg.sender, tokenId, reward) */\n      mload(0x40)\n      tag_98\n      swap3\n      swap2\n      swap1\n      tag_99\n      jump\t// in\n    tag_98:\n      mload(0x40)\n      dup1\n      swap2\n      sub\n      swap1\n      log2\n        /* \"NFTStakingModule.sol\":1523:2182  {... */\n      pop\n      pop\n      pop\n        /* \"@openzeppelin/contracts/security/ReentrancyGuard.sol\":2303:2323  _nonReentrantAfter() */\n      tag_100\n        /* \"@openzeppelin/contracts/security/ReentrancyGuard.sol\":2303:2321  _nonReentrantAfter */\n      tag_66\n        /* \"@openzeppelin/contracts/security/ReentrancyGuard.sol\":2303:2323  _nonReentrantAfter() */\n      jump\t// in\n    tag_100:\n        /* \"NFTStakingModule.sol\":1479:2182  function unstakeNFT() external nonReentrant {... */\n      jump\t// out\n        /* \"NFTStakingModule.sol\":321:340  IERC20 public token */\n    tag_40:\n      0x02\n      0x00\n      swap1\n      sload\n      swap1\n      0x0100\n      exp\n      swap1\n      div\n      0xffffffffffffffffffffffffffffffffffffffff\n      and\n      dup2\n      jump\t// out\n        /* \"@openzeppelin/contracts/security/ReentrancyGuard.sol\":2336:2623  function _nonReentrantBefore() private {... */\n    tag_45:\n        /* \"@openzeppelin/contracts/security/ReentrancyGuard.sol\":1759:1760  2 */\n      0x02\n        /* \"@openzeppelin/contracts/security/ReentrancyGuard.sol\":2468:2475  _status */\n      sload(0x00)\n        /* \"@openzeppelin/contracts/security/ReentrancyGuard.sol\":2468:2487  _status != _ENTERED */\n      sub\n        /* \"@openzeppelin/contracts/security/ReentrancyGuard.sol\":2460:2523  require(_status != _ENTERED, \"ReentrancyGuard: reentrant call\") */\n      tag_102\n      jumpi\n      mload(0x40)\n      0x08c379a000000000000000000000000000000000000000000000000000000000\n      dup2\n      mstore\n      0x04\n      add\n      tag_103\n      swap1\n      tag_104\n      jump\t// in\n    tag_103:\n      mload(0x40)\n      dup1\n      swap2\n      sub\n      swap1\n      revert\n    tag_102:\n        /* \"@openzeppelin/contracts/security/ReentrancyGuard.sol\":1759:1760  2 */\n      0x02\n        /* \"@openzeppelin/contracts/security/ReentrancyGuard.sol\":2598:2605  _status */\n      0x00\n        /* \"@openzeppelin/contracts/security/ReentrancyGuard.sol\":2598:2616  _status = _ENTERED */\n      dup2\n      swap1\n      sstore\n      pop\n        /* \"@openzeppelin/contracts/security/ReentrancyGuard.sol\":2336:2623  function _nonReentrantBefore() private {... */\n      jump\t// out\n        /* \"@openzeppelin/contracts/security/ReentrancyGuard.sol\":2629:2838  function _nonReentrantAfter() private {... */\n    tag_66:\n        /* \"@openzeppelin/contracts/security/ReentrancyGuard.sol\":1716:1717  1 */\n      0x01\n        /* \"@openzeppelin/contracts/security/ReentrancyGuard.sol\":2809:2816  _status */\n      0x00\n        /* \"@openzeppelin/contracts/security/ReentrancyGuard.sol\":2809:2831  _status = _NOT_ENTERED */\n      dup2\n      swap1\n      sstore\n      pop\n        /* \"@openzeppelin/contracts/security/ReentrancyGuard.sol\":2629:2838  function _nonReentrantAfter() private {... */\n      jump\t// out\n        /* \"#utility.yul\":88:205   */\n    tag_107:\n        /* \"#utility.yul\":197:198   */\n      0x00\n        /* \"#utility.yul\":194:195   */\n      dup1\n        /* \"#utility.yul\":187:199   */\n      revert\n        /* \"#utility.yul\":334:460   */\n    tag_109:\n        /* \"#utility.yul\":371:378   */\n      0x00\n        /* \"#utility.yul\":411:453   */\n      0xffffffffffffffffffffffffffffffffffffffff\n        /* \"#utility.yul\":404:409   */\n      dup3\n        /* \"#utility.yul\":400:454   */\n      and\n        /* \"#utility.yul\":389:454   */\n      swap1\n      pop\n        /* \"#utility.yul\":334:460   */\n      swap2\n      swap1\n      pop\n      jump\t// out\n        /* \"#utility.yul\":466:562   */\n    tag_110:\n        /* \"#utility.yul\":503:510   */\n      0x00\n        /* \"#utility.yul\":532:556   */\n      tag_146\n        /* \"#utility.yul\":550:555   */\n      dup3\n        /* \"#utility.yul\":532:556   */\n      tag_109\n      jump\t// in\n    tag_146:\n        /* \"#utility.yul\":521:556   */\n      swap1\n      pop\n        /* \"#utility.yul\":466:562   */\n      swap2\n      swap1\n      pop\n      jump\t// out\n        /* \"#utility.yul\":568:690   */\n    tag_111:\n        /* \"#utility.yul\":641:665   */\n      tag_148\n        /* \"#utility.yul\":659:664   */\n      dup2\n        /* \"#utility.yul\":641:665   */\n      tag_110\n      jump\t// in\n    tag_148:\n        /* \"#utility.yul\":634:639   */\n      dup2\n        /* \"#utility.yul\":631:666   */\n      eq\n        /* \"#utility.yul\":621:684   */\n      tag_149\n      jumpi\n        /* \"#utility.yul\":680:681   */\n      0x00\n        /* \"#utility.yul\":677:678   */\n      dup1\n        /* \"#utility.yul\":670:682   */\n      revert\n        /* \"#utility.yul\":621:684   */\n    tag_149:\n        /* \"#utility.yul\":568:690   */\n      pop\n      jump\t// out\n        /* \"#utility.yul\":696:835   */\n    tag_112:\n        /* \"#utility.yul\":742:747   */\n      0x00\n        /* \"#utility.yul\":780:786   */\n      dup2\n        /* \"#utility.yul\":767:787   */\n      calldataload\n        /* \"#utility.yul\":758:787   */\n      swap1\n      pop\n        /* \"#utility.yul\":796:829   */\n      tag_151\n        /* \"#utility.yul\":823:828   */\n      dup2\n        /* \"#utility.yul\":796:829   */\n      tag_111\n      jump\t// in\n    tag_151:\n        /* \"#utility.yul\":696:835   */\n      swap3\n      swap2\n      pop\n      pop\n      jump\t// out\n        /* \"#utility.yul\":841:1170   */\n    tag_14:\n        /* \"#utility.yul\":900:906   */\n      0x00\n        /* \"#utility.yul\":949:951   */\n      0x20\n        /* \"#utility.yul\":937:946   */\n      dup3\n        /* \"#utility.yul\":928:935   */\n      dup5\n        /* \"#utility.yul\":924:947   */\n      sub\n        /* \"#utility.yul\":920:952   */\n      slt\n        /* \"#utility.yul\":917:1036   */\n      iszero\n      tag_153\n      jumpi\n        /* \"#utility.yul\":955:1034   */\n      tag_154\n      tag_107\n      jump\t// in\n    tag_154:\n        /* \"#utility.yul\":917:1036   */\n    tag_153:\n        /* \"#utility.yul\":1075:1076   */\n      0x00\n        /* \"#utility.yul\":1100:1153   */\n      tag_155\n        /* \"#utility.yul\":1145:1152   */\n      dup5\n        /* \"#utility.yul\":1136:1142   */\n      dup3\n        /* \"#utility.yul\":1125:1134   */\n      dup6\n        /* \"#utility.yul\":1121:1143   */\n      add\n        /* \"#utility.yul\":1100:1153   */\n      tag_112\n      jump\t// in\n    tag_155:\n        /* \"#utility.yul\":1090:1153   */\n      swap2\n      pop\n        /* \"#utility.yul\":1046:1163   */\n      pop\n        /* \"#utility.yul\":841:1170   */\n      swap3\n      swap2\n      pop\n      pop\n      jump\t// out\n        /* \"#utility.yul\":1176:1253   */\n    tag_113:\n        /* \"#utility.yul\":1213:1220   */\n      0x00\n        /* \"#utility.yul\":1242:1247   */\n      dup2\n        /* \"#utility.yul\":1231:1247   */\n      swap1\n      pop\n        /* \"#utility.yul\":1176:1253   */\n      swap2\n      swap1\n      pop\n      jump\t// out\n        /* \"#utility.yul\":1259:1377   */\n    tag_114:\n        /* \"#utility.yul\":1346:1370   */\n      tag_158\n        /* \"#utility.yul\":1364:1369   */\n      dup2\n        /* \"#utility.yul\":1346:1370   */\n      tag_113\n      jump\t// in\n    tag_158:\n        /* \"#utility.yul\":1341:1344   */\n      dup3\n        /* \"#utility.yul\":1334:1371   */\n      mstore\n        /* \"#utility.yul\":1259:1377   */\n      pop\n      pop\n      jump\t// out\n        /* \"#utility.yul\":1383:1825   */\n    tag_17:\n        /* \"#utility.yul\":1532:1536   */\n      0x00\n        /* \"#utility.yul\":1570:1572   */\n      0x60\n        /* \"#utility.yul\":1559:1568   */\n      dup3\n        /* \"#utility.yul\":1555:1573   */\n      add\n        /* \"#utility.yul\":1547:1573   */\n      swap1\n      pop\n        /* \"#utility.yul\":1583:1654   */\n      tag_160\n        /* \"#utility.yul\":1651:1652   */\n      0x00\n        /* \"#utility.yul\":1640:1649   */\n      dup4\n        /* \"#utility.yul\":1636:1653   */\n      add\n        /* \"#utility.yul\":1627:1633   */\n      dup7\n        /* \"#utility.yul\":1583:1654   */\n      tag_114\n      jump\t// in\n    tag_160:\n        /* \"#utility.yul\":1664:1736   */\n      tag_161\n        /* \"#utility.yul\":1732:1734   */\n      0x20\n        /* \"#utility.yul\":1721:1730   */\n      dup4\n        /* \"#utility.yul\":1717:1735   */\n      add\n        /* \"#utility.yul\":1708:1714   */\n      dup6\n        /* \"#utility.yul\":1664:1736   */\n      tag_114\n      jump\t// in\n    tag_161:\n        /* \"#utility.yul\":1746:1818   */\n      tag_162\n        /* \"#utility.yul\":1814:1816   */\n      0x40\n        /* \"#utility.yul\":1803:1812   */\n      dup4\n        /* \"#utility.yul\":1799:1817   */\n      add\n        /* \"#utility.yul\":1790:1796   */\n      dup5\n        /* \"#utility.yul\":1746:1818   */\n      tag_114\n      jump\t// in\n    tag_162:\n        /* \"#utility.yul\":1383:1825   */\n      swap5\n      swap4\n      pop\n      pop\n      pop\n      pop\n      jump\t// out\n        /* \"#utility.yul\":1831:1953   */\n    tag_115:\n        /* \"#utility.yul\":1904:1928   */\n      tag_164\n        /* \"#utility.yul\":1922:1927   */\n      dup2\n        /* \"#utility.yul\":1904:1928   */\n      tag_113\n      jump\t// in\n    tag_164:\n        /* \"#utility.yul\":1897:1902   */\n      dup2\n        /* \"#utility.yul\":1894:1929   */\n      eq\n        /* \"#utility.yul\":1884:1947   */\n      tag_165\n      jumpi\n        /* \"#utility.yul\":1943:1944   */\n      0x00\n        /* \"#utility.yul\":1940:1941   */\n      dup1\n        /* \"#utility.yul\":1933:1945   */\n      revert\n        /* \"#utility.yul\":1884:1947   */\n    tag_165:\n        /* \"#utility.yul\":1831:1953   */\n      pop\n      jump\t// out\n        /* \"#utility.yul\":1959:2098   */\n    tag_116:\n        /* \"#utility.yul\":2005:2010   */\n      0x00\n        /* \"#utility.yul\":2043:2049   */\n      dup2\n        /* \"#utility.yul\":2030:2050   */\n      calldataload\n        /* \"#utility.yul\":2021:2050   */\n      swap1\n      pop\n        /* \"#utility.yul\":2059:2092   */\n      tag_167\n        /* \"#utility.yul\":2086:2091   */\n      dup2\n        /* \"#utility.yul\":2059:2092   */\n      tag_115\n      jump\t// in\n    tag_167:\n        /* \"#utility.yul\":1959:2098   */\n      swap3\n      swap2\n      pop\n      pop\n      jump\t// out\n        /* \"#utility.yul\":2104:2433   */\n    tag_20:\n        /* \"#utility.yul\":2163:2169   */\n      0x00\n        /* \"#utility.yul\":2212:2214   */\n      0x20\n        /* \"#utility.yul\":2200:2209   */\n      dup3\n        /* \"#utility.yul\":2191:2198   */\n      dup5\n        /* \"#utility.yul\":2187:2210   */\n      sub\n        /* \"#utility.yul\":2183:2215   */\n      slt\n        /* \"#utility.yul\":2180:2299   */\n      iszero\n      tag_169\n      jumpi\n        /* \"#utility.yul\":2218:2297   */\n      tag_170\n      tag_107\n      jump\t// in\n    tag_170:\n        /* \"#utility.yul\":2180:2299   */\n    tag_169:\n        /* \"#utility.yul\":2338:2339   */\n      0x00\n        /* \"#utility.yul\":2363:2416   */\n      tag_171\n        /* \"#utility.yul\":2408:2415   */\n      dup5\n        /* \"#utility.yul\":2399:2405   */\n      dup3\n        /* \"#utility.yul\":2388:2397   */\n      dup6\n        /* \"#utility.yul\":2384:2406   */\n      add\n        /* \"#utility.yul\":2363:2416   */\n      tag_116\n      jump\t// in\n    tag_171:\n        /* \"#utility.yul\":2353:2416   */\n      swap2\n      pop\n        /* \"#utility.yul\":2309:2426   */\n      pop\n        /* \"#utility.yul\":2104:2433   */\n      swap3\n      swap2\n      pop\n      pop\n      jump\t// out\n        /* \"#utility.yul\":2439:2661   */\n    tag_25:\n        /* \"#utility.yul\":2532:2536   */\n      0x00\n        /* \"#utility.yul\":2570:2572   */\n      0x20\n        /* \"#utility.yul\":2559:2568   */\n      dup3\n        /* \"#utility.yul\":2555:2573   */\n      add\n        /* \"#utility.yul\":2547:2573   */\n      swap1\n      pop\n        /* \"#utility.yul\":2583:2654   */\n      tag_173\n        /* \"#utility.yul\":2651:2652   */\n      0x00\n        /* \"#utility.yul\":2640:2649   */\n      dup4\n        /* \"#utility.yul\":2636:2653   */\n      add\n        /* \"#utility.yul\":2627:2633   */\n      dup5\n        /* \"#utility.yul\":2583:2654   */\n      tag_114\n      jump\t// in\n    tag_173:\n        /* \"#utility.yul\":2439:2661   */\n      swap3\n      swap2\n      pop\n      pop\n      jump\t// out\n        /* \"#utility.yul\":2667:2727   */\n    tag_117:\n        /* \"#utility.yul\":2695:2698   */\n      0x00\n        /* \"#utility.yul\":2716:2721   */\n      dup2\n        /* \"#utility.yul\":2709:2721   */\n      swap1\n      pop\n        /* \"#utility.yul\":2667:2727   */\n      swap2\n      swap1\n      pop\n      jump\t// out\n        /* \"#utility.yul\":2733:2875   */\n    tag_118:\n        /* \"#utility.yul\":2783:2792   */\n      0x00\n        /* \"#utility.yul\":2816:2869   */\n      tag_176\n        /* \"#utility.yul\":2834:2868   */\n      tag_177\n        /* \"#utility.yul\":2843:2867   */\n      tag_178\n        /* \"#utility.yul\":2861:2866   */\n      dup5\n        /* \"#utility.yul\":2843:2867   */\n      tag_109\n      jump\t// in\n    tag_178:\n        /* \"#utility.yul\":2834:2868   */\n      tag_117\n      jump\t// in\n    tag_177:\n        /* \"#utility.yul\":2816:2869   */\n      tag_109\n      jump\t// in\n    tag_176:\n        /* \"#utility.yul\":2803:2869   */\n      swap1\n      pop\n        /* \"#utility.yul\":2733:2875   */\n      swap2\n      swap1\n      pop\n      jump\t// out\n        /* \"#utility.yul\":2881:3007   */\n    tag_119:\n        /* \"#utility.yul\":2931:2940   */\n      0x00\n        /* \"#utility.yul\":2964:3001   */\n      tag_180\n        /* \"#utility.yul\":2995:3000   */\n      dup3\n        /* \"#utility.yul\":2964:3001   */\n      tag_118\n      jump\t// in\n    tag_180:\n        /* \"#utility.yul\":2951:3001   */\n      swap1\n      pop\n        /* \"#utility.yul\":2881:3007   */\n      swap2\n      swap1\n      pop\n      jump\t// out\n        /* \"#utility.yul\":3013:3154   */\n    tag_120:\n        /* \"#utility.yul\":3078:3087   */\n      0x00\n        /* \"#utility.yul\":3111:3148   */\n      tag_182\n        /* \"#utility.yul\":3142:3147   */\n      dup3\n        /* \"#utility.yul\":3111:3148   */\n      tag_119\n      jump\t// in\n    tag_182:\n        /* \"#utility.yul\":3098:3148   */\n      swap1\n      pop\n        /* \"#utility.yul\":3013:3154   */\n      swap2\n      swap1\n      pop\n      jump\t// out\n        /* \"#utility.yul\":3160:3321   */\n    tag_121:\n        /* \"#utility.yul\":3262:3314   */\n      tag_184\n        /* \"#utility.yul\":3308:3313   */\n      dup2\n        /* \"#utility.yul\":3262:3314   */\n      tag_120\n      jump\t// in\n    tag_184:\n        /* \"#utility.yul\":3257:3260   */\n      dup3\n        /* \"#utility.yul\":3250:3315   */\n      mstore\n        /* \"#utility.yul\":3160:3321   */\n      pop\n      pop\n      jump\t// out\n        /* \"#utility.yul\":3327:3579   */\n    tag_32:\n        /* \"#utility.yul\":3435:3439   */\n      0x00\n        /* \"#utility.yul\":3473:3475   */\n      0x20\n        /* \"#utility.yul\":3462:3471   */\n      dup3\n        /* \"#utility.yul\":3458:3476   */\n      add\n        /* \"#utility.yul\":3450:3476   */\n      swap1\n      pop\n        /* \"#utility.yul\":3486:3572   */\n      tag_186\n        /* \"#utility.yul\":3569:3570   */\n      0x00\n        /* \"#utility.yul\":3558:3567   */\n      dup4\n        /* \"#utility.yul\":3554:3571   */\n      add\n        /* \"#utility.yul\":3545:3551   */\n      dup5\n        /* \"#utility.yul\":3486:3572   */\n      tag_121\n      jump\t// in\n    tag_186:\n        /* \"#utility.yul\":3327:3579   */\n      swap3\n      swap2\n      pop\n      pop\n      jump\t// out\n        /* \"#utility.yul\":3585:3725   */\n    tag_122:\n        /* \"#utility.yul\":3649:3658   */\n      0x00\n        /* \"#utility.yul\":3682:3719   */\n      tag_188\n        /* \"#utility.yul\":3713:3718   */\n      dup3\n        /* \"#utility.yul\":3682:3719   */\n      tag_119\n      jump\t// in\n    tag_188:\n        /* \"#utility.yul\":3669:3719   */\n      swap1\n      pop\n        /* \"#utility.yul\":3585:3725   */\n      swap2\n      swap1\n      pop\n      jump\t// out\n        /* \"#utility.yul\":3731:3890   */\n    tag_123:\n        /* \"#utility.yul\":3832:3883   */\n      tag_190\n        /* \"#utility.yul\":3877:3882   */\n      dup2\n        /* \"#utility.yul\":3832:3883   */\n      tag_122\n      jump\t// in\n    tag_190:\n        /* \"#utility.yul\":3827:3830   */\n      dup3\n        /* \"#utility.yul\":3820:3884   */\n      mstore\n        /* \"#utility.yul\":3731:3890   */\n      pop\n      pop\n      jump\t// out\n        /* \"#utility.yul\":3896:4146   */\n    tag_42:\n        /* \"#utility.yul\":4003:4007   */\n      0x00\n        /* \"#utility.yul\":4041:4043   */\n      0x20\n        /* \"#utility.yul\":4030:4039   */\n      dup3\n        /* \"#utility.yul\":4026:4044   */\n      add\n        /* \"#utility.yul\":4018:4044   */\n      swap1\n      pop\n        /* \"#utility.yul\":4054:4139   */\n      tag_192\n        /* \"#utility.yul\":4136:4137   */\n      0x00\n        /* \"#utility.yul\":4125:4134   */\n      dup4\n        /* \"#utility.yul\":4121:4138   */\n      add\n        /* \"#utility.yul\":4112:4118   */\n      dup5\n        /* \"#utility.yul\":4054:4139   */\n      tag_123\n      jump\t// in\n    tag_192:\n        /* \"#utility.yul\":3896:4146   */\n      swap3\n      swap2\n      pop\n      pop\n      jump\t// out\n        /* \"#utility.yul\":4152:4295   */\n    tag_124:\n        /* \"#utility.yul\":4209:4214   */\n      0x00\n        /* \"#utility.yul\":4240:4246   */\n      dup2\n        /* \"#utility.yul\":4234:4247   */\n      mload\n        /* \"#utility.yul\":4225:4247   */\n      swap1\n      pop\n        /* \"#utility.yul\":4256:4289   */\n      tag_194\n        /* \"#utility.yul\":4283:4288   */\n      dup2\n        /* \"#utility.yul\":4256:4289   */\n      tag_111\n      jump\t// in\n    tag_194:\n        /* \"#utility.yul\":4152:4295   */\n      swap3\n      swap2\n      pop\n      pop\n      jump\t// out\n        /* \"#utility.yul\":4301:4652   */\n    tag_51:\n        /* \"#utility.yul\":4371:4377   */\n      0x00\n        /* \"#utility.yul\":4420:4422   */\n      0x20\n        /* \"#utility.yul\":4408:4417   */\n      dup3\n        /* \"#utility.yul\":4399:4406   */\n      dup5\n        /* \"#utility.yul\":4395:4418   */\n      sub\n        /* \"#utility.yul\":4391:4423   */\n      slt\n        /* \"#utility.yul\":4388:4507   */\n      iszero\n      tag_196\n      jumpi\n        /* \"#utility.yul\":4426:4505   */\n      tag_197\n      tag_107\n      jump\t// in\n    tag_197:\n        /* \"#utility.yul\":4388:4507   */\n    tag_196:\n        /* \"#utility.yul\":4546:4547   */\n      0x00\n        /* \"#utility.yul\":4571:4635   */\n      tag_198\n        /* \"#utility.yul\":4627:4634   */\n      dup5\n        /* \"#utility.yul\":4618:4624   */\n      dup3\n        /* \"#utility.yul\":4607:4616   */\n      dup6\n        /* \"#utility.yul\":4603:4625   */\n      add\n        /* \"#utility.yul\":4571:4635   */\n      tag_124\n      jump\t// in\n    tag_198:\n        /* \"#utility.yul\":4561:4635   */\n      swap2\n      pop\n        /* \"#utility.yul\":4517:4645   */\n      pop\n        /* \"#utility.yul\":4301:4652   */\n      swap3\n      swap2\n      pop\n      pop\n      jump\t// out\n        /* \"#utility.yul\":4658:4827   */\n    tag_125:\n        /* \"#utility.yul\":4742:4753   */\n      0x00\n        /* \"#utility.yul\":4776:4782   */\n      dup3\n        /* \"#utility.yul\":4771:4774   */\n      dup3\n        /* \"#utility.yul\":4764:4783   */\n      mstore\n        /* \"#utility.yul\":4816:4820   */\n      0x20\n        /* \"#utility.yul\":4811:4814   */\n      dup3\n        /* \"#utility.yul\":4807:4821   */\n      add\n        /* \"#utility.yul\":4792:4821   */\n      swap1\n      pop\n        /* \"#utility.yul\":4658:4827   */\n      swap3\n      swap2\n      pop\n      pop\n      jump\t// out\n        /* \"#utility.yul\":4833:4992   */\n    tag_126:\n        /* \"#utility.yul\":4973:4984   */\n      0x4e6f74206f776e65720000000000000000000000000000000000000000000000\n        /* \"#utility.yul\":4969:4970   */\n      0x00\n        /* \"#utility.yul\":4961:4967   */\n      dup3\n        /* \"#utility.yul\":4957:4971   */\n      add\n        /* \"#utility.yul\":4950:4985   */\n      mstore\n        /* \"#utility.yul\":4833:4992   */\n      pop\n      jump\t// out\n        /* \"#utility.yul\":4998:5363   */\n    tag_127:\n        /* \"#utility.yul\":5140:5143   */\n      0x00\n        /* \"#utility.yul\":5161:5227   */\n      tag_202\n        /* \"#utility.yul\":5225:5226   */\n      0x09\n        /* \"#utility.yul\":5220:5223   */\n      dup4\n        /* \"#utility.yul\":5161:5227   */\n      tag_125\n      jump\t// in\n    tag_202:\n        /* \"#utility.yul\":5154:5227   */\n      swap2\n      pop\n        /* \"#utility.yul\":5236:5329   */\n      tag_203\n        /* \"#utility.yul\":5325:5328   */\n      dup3\n        /* \"#utility.yul\":5236:5329   */\n      tag_126\n      jump\t// in\n    tag_203:\n        /* \"#utility.yul\":5354:5356   */\n      0x20\n        /* \"#utility.yul\":5349:5352   */\n      dup3\n        /* \"#utility.yul\":5345:5357   */\n      add\n        /* \"#utility.yul\":5338:5357   */\n      swap1\n      pop\n        /* \"#utility.yul\":4998:5363   */\n      swap2\n      swap1\n      pop\n      jump\t// out\n        /* \"#utility.yul\":5369:5788   */\n    tag_54:\n        /* \"#utility.yul\":5535:5539   */\n      0x00\n        /* \"#utility.yul\":5573:5575   */\n      0x20\n        /* \"#utility.yul\":5562:5571   */\n      dup3\n        /* \"#utility.yul\":5558:5576   */\n      add\n        /* \"#utility.yul\":5550:5576   */\n      swap1\n      pop\n        /* \"#utility.yul\":5622:5631   */\n      dup2\n        /* \"#utility.yul\":5616:5620   */\n      dup2\n        /* \"#utility.yul\":5612:5632   */\n      sub\n        /* \"#utility.yul\":5608:5609   */\n      0x00\n        /* \"#utility.yul\":5597:5606   */\n      dup4\n        /* \"#utility.yul\":5593:5610   */\n      add\n        /* \"#utility.yul\":5586:5633   */\n      mstore\n        /* \"#utility.yul\":5650:5781   */\n      tag_205\n        /* \"#utility.yul\":5776:5780   */\n      dup2\n        /* \"#utility.yul\":5650:5781   */\n      tag_127\n      jump\t// in\n    tag_205:\n        /* \"#utility.yul\":5642:5781   */\n      swap1\n      pop\n        /* \"#utility.yul\":5369:5788   */\n      swap2\n      swap1\n      pop\n      jump\t// out\n        /* \"#utility.yul\":5794:5912   */\n    tag_128:\n        /* \"#utility.yul\":5881:5905   */\n      tag_207\n        /* \"#utility.yul\":5899:5904   */\n      dup2\n        /* \"#utility.yul\":5881:5905   */\n      tag_110\n      jump\t// in\n    tag_207:\n        /* \"#utility.yul\":5876:5879   */\n      dup3\n        /* \"#utility.yul\":5869:5906   */\n      mstore\n        /* \"#utility.yul\":5794:5912   */\n      pop\n      pop\n      jump\t// out\n        /* \"#utility.yul\":5918:6360   */\n    tag_56:\n        /* \"#utility.yul\":6067:6071   */\n      0x00\n        /* \"#utility.yul\":6105:6107   */\n      0x60\n        /* \"#utility.yul\":6094:6103   */\n      dup3\n        /* \"#utility.yul\":6090:6108   */\n      add\n        /* \"#utility.yul\":6082:6108   */\n      swap1\n      pop\n        /* \"#utility.yul\":6118:6189   */\n      tag_209\n        /* \"#utility.yul\":6186:6187   */\n      0x00\n        /* \"#utility.yul\":6175:6184   */\n      dup4\n        /* \"#utility.yul\":6171:6188   */\n      add\n        /* \"#utility.yul\":6162:6168   */\n      dup7\n        /* \"#utility.yul\":6118:6189   */\n      tag_128\n      jump\t// in\n    tag_209:\n        /* \"#utility.yul\":6199:6271   */\n      tag_210\n        /* \"#utility.yul\":6267:6269   */\n      0x20\n        /* \"#utility.yul\":6256:6265   */\n      dup4\n        /* \"#utility.yul\":6252:6270   */\n      add\n        /* \"#utility.yul\":6243:6249   */\n      dup6\n        /* \"#utility.yul\":6199:6271   */\n      tag_128\n      jump\t// in\n    tag_210:\n        /* \"#utility.yul\":6281:6353   */\n      tag_211\n        /* \"#utility.yul\":6349:6351   */\n      0x40\n        /* \"#utility.yul\":6338:6347   */\n      dup4\n        /* \"#utility.yul\":6334:6352   */\n      add\n        /* \"#utility.yul\":6325:6331   */\n      dup5\n        /* \"#utility.yul\":6281:6353   */\n      tag_114\n      jump\t// in\n    tag_211:\n        /* \"#utility.yul\":5918:6360   */\n      swap5\n      swap4\n      pop\n      pop\n      pop\n      pop\n      jump\t// out\n        /* \"#utility.yul\":6366:6546   */\n    tag_129:\n        /* \"#utility.yul\":6414:6491   */\n      0x4e487b7100000000000000000000000000000000000000000000000000000000\n        /* \"#utility.yul\":6411:6412   */\n      0x00\n        /* \"#utility.yul\":6404:6492   */\n      mstore\n        /* \"#utility.yul\":6511:6515   */\n      0x11\n        /* \"#utility.yul\":6508:6509   */\n      0x04\n        /* \"#utility.yul\":6501:6516   */\n      mstore\n        /* \"#utility.yul\":6535:6539   */\n      0x24\n        /* \"#utility.yul\":6532:6533   */\n      0x00\n        /* \"#utility.yul\":6525:6540   */\n      revert\n        /* \"#utility.yul\":6552:6743   */\n    tag_63:\n        /* \"#utility.yul\":6592:6595   */\n      0x00\n        /* \"#utility.yul\":6611:6631   */\n      tag_214\n        /* \"#utility.yul\":6629:6630   */\n      dup3\n        /* \"#utility.yul\":6611:6631   */\n      tag_113\n      jump\t// in\n    tag_214:\n        /* \"#utility.yul\":6606:6631   */\n      swap2\n      pop\n        /* \"#utility.yul\":6645:6665   */\n      tag_215\n        /* \"#utility.yul\":6663:6664   */\n      dup4\n        /* \"#utility.yul\":6645:6665   */\n      tag_113\n      jump\t// in\n    tag_215:\n        /* \"#utility.yul\":6640:6665   */\n      swap3\n      pop\n        /* \"#utility.yul\":6688:6689   */\n      dup3\n        /* \"#utility.yul\":6685:6686   */\n      dup3\n        /* \"#utility.yul\":6681:6690   */\n      add\n        /* \"#utility.yul\":6674:6690   */\n      swap1\n      pop\n        /* \"#utility.yul\":6709:6712   */\n      dup1\n        /* \"#utility.yul\":6706:6707   */\n      dup3\n        /* \"#utility.yul\":6703:6713   */\n      gt\n        /* \"#utility.yul\":6700:6736   */\n      iszero\n      tag_216\n      jumpi\n        /* \"#utility.yul\":6716:6734   */\n      tag_217\n      tag_129\n      jump\t// in\n    tag_217:\n        /* \"#utility.yul\":6700:6736   */\n    tag_216:\n        /* \"#utility.yul\":6552:6743   */\n      swap3\n      swap2\n      pop\n      pop\n      jump\t// out\n        /* \"#utility.yul\":6749:6943   */\n    tag_70:\n        /* \"#utility.yul\":6789:6793   */\n      0x00\n        /* \"#utility.yul\":6809:6829   */\n      tag_219\n        /* \"#utility.yul\":6827:6828   */\n      dup3\n        /* \"#utility.yul\":6809:6829   */\n      tag_113\n      jump\t// in\n    tag_219:\n        /* \"#utility.yul\":6804:6829   */\n      swap2\n      pop\n        /* \"#utility.yul\":6843:6863   */\n      tag_220\n        /* \"#utility.yul\":6861:6862   */\n      dup4\n        /* \"#utility.yul\":6843:6863   */\n      tag_113\n      jump\t// in\n    tag_220:\n        /* \"#utility.yul\":6838:6863   */\n      swap3\n      pop\n        /* \"#utility.yul\":6887:6888   */\n      dup3\n        /* \"#utility.yul\":6884:6885   */\n      dup3\n        /* \"#utility.yul\":6880:6889   */\n      sub\n        /* \"#utility.yul\":6872:6889   */\n      swap1\n      pop\n        /* \"#utility.yul\":6911:6912   */\n      dup2\n        /* \"#utility.yul\":6905:6909   */\n      dup2\n        /* \"#utility.yul\":6902:6913   */\n      gt\n        /* \"#utility.yul\":6899:6936   */\n      iszero\n      tag_221\n      jumpi\n        /* \"#utility.yul\":6916:6934   */\n      tag_222\n      tag_129\n      jump\t// in\n    tag_222:\n        /* \"#utility.yul\":6899:6936   */\n    tag_221:\n        /* \"#utility.yul\":6749:6943   */\n      swap3\n      swap2\n      pop\n      pop\n      jump\t// out\n        /* \"#utility.yul\":6949:7359   */\n    tag_72:\n        /* \"#utility.yul\":6989:6996   */\n      0x00\n        /* \"#utility.yul\":7012:7032   */\n      tag_224\n        /* \"#utility.yul\":7030:7031   */\n      dup3\n        /* \"#utility.yul\":7012:7032   */\n      tag_113\n      jump\t// in\n    tag_224:\n        /* \"#utility.yul\":7007:7032   */\n      swap2\n      pop\n        /* \"#utility.yul\":7046:7066   */\n      tag_225\n        /* \"#utility.yul\":7064:7065   */\n      dup4\n        /* \"#utility.yul\":7046:7066   */\n      tag_113\n      jump\t// in\n    tag_225:\n        /* \"#utility.yul\":7041:7066   */\n      swap3\n      pop\n        /* \"#utility.yul\":7101:7102   */\n      dup3\n        /* \"#utility.yul\":7098:7099   */\n      dup3\n        /* \"#utility.yul\":7094:7103   */\n      mul\n        /* \"#utility.yul\":7123:7153   */\n      tag_226\n        /* \"#utility.yul\":7141:7152   */\n      dup2\n        /* \"#utility.yul\":7123:7153   */\n      tag_113\n      jump\t// in\n    tag_226:\n        /* \"#utility.yul\":7112:7153   */\n      swap2\n      pop\n        /* \"#utility.yul\":7302:7303   */\n      dup3\n        /* \"#utility.yul\":7293:7300   */\n      dup3\n        /* \"#utility.yul\":7289:7304   */\n      div\n        /* \"#utility.yul\":7286:7287   */\n      dup5\n        /* \"#utility.yul\":7283:7305   */\n      eq\n        /* \"#utility.yul\":7263:7264   */\n      dup4\n        /* \"#utility.yul\":7256:7265   */\n      iszero\n        /* \"#utility.yul\":7236:7319   */\n      or\n        /* \"#utility.yul\":7213:7352   */\n      tag_227\n      jumpi\n        /* \"#utility.yul\":7332:7350   */\n      tag_228\n      tag_129\n      jump\t// in\n    tag_228:\n        /* \"#utility.yul\":7213:7352   */\n    tag_227:\n        /* \"#utility.yul\":6997:7359   */\n      pop\n        /* \"#utility.yul\":6949:7359   */\n      swap3\n      swap2\n      pop\n      pop\n      jump\t// out\n        /* \"#utility.yul\":7365:7545   */\n    tag_130:\n        /* \"#utility.yul\":7413:7490   */\n      0x4e487b7100000000000000000000000000000000000000000000000000000000\n        /* \"#utility.yul\":7410:7411   */\n      0x00\n        /* \"#utility.yul\":7403:7491   */\n      mstore\n        /* \"#utility.yul\":7510:7514   */\n      0x12\n        /* \"#utility.yul\":7507:7508   */\n      0x04\n        /* \"#utility.yul\":7500:7515   */\n      mstore\n        /* \"#utility.yul\":7534:7538   */\n      0x24\n        /* \"#utility.yul\":7531:7532   */\n      0x00\n        /* \"#utility.yul\":7524:7539   */\n      revert\n        /* \"#utility.yul\":7551:7736   */\n    tag_75:\n        /* \"#utility.yul\":7591:7592   */\n      0x00\n        /* \"#utility.yul\":7608:7628   */\n      tag_231\n        /* \"#utility.yul\":7626:7627   */\n      dup3\n        /* \"#utility.yul\":7608:7628   */\n      tag_113\n      jump\t// in\n    tag_231:\n        /* \"#utility.yul\":7603:7628   */\n      swap2\n      pop\n        /* \"#utility.yul\":7642:7662   */\n      tag_232\n        /* \"#utility.yul\":7660:7661   */\n      dup4\n        /* \"#utility.yul\":7642:7662   */\n      tag_113\n      jump\t// in\n    tag_232:\n        /* \"#utility.yul\":7637:7662   */\n      swap3\n      pop\n        /* \"#utility.yul\":7681:7682   */\n      dup3\n        /* \"#utility.yul\":7671:7706   */\n      tag_233\n      jumpi\n        /* \"#utility.yul\":7686:7704   */\n      tag_234\n      tag_130\n      jump\t// in\n    tag_234:\n        /* \"#utility.yul\":7671:7706   */\n    tag_233:\n        /* \"#utility.yul\":7728:7729   */\n      dup3\n        /* \"#utility.yul\":7725:7726   */\n      dup3\n        /* \"#utility.yul\":7721:7730   */\n      div\n        /* \"#utility.yul\":7716:7730   */\n      swap1\n      pop\n        /* \"#utility.yul\":7551:7736   */\n      swap3\n      swap2\n      pop\n      pop\n      jump\t// out\n        /* \"#utility.yul\":7742:7905   */\n    tag_131:\n        /* \"#utility.yul\":7882:7897   */\n      0x4e6f204e4654207374616b656400000000000000000000000000000000000000\n        /* \"#utility.yul\":7878:7879   */\n      0x00\n        /* \"#utility.yul\":7870:7876   */\n      dup3\n        /* \"#utility.yul\":7866:7880   */\n      add\n        /* \"#utility.yul\":7859:7898   */\n      mstore\n        /* \"#utility.yul\":7742:7905   */\n      pop\n      jump\t// out\n        /* \"#utility.yul\":7911:8277   */\n    tag_132:\n        /* \"#utility.yul\":8053:8056   */\n      0x00\n        /* \"#utility.yul\":8074:8141   */\n      tag_237\n        /* \"#utility.yul\":8138:8140   */\n      0x0d\n        /* \"#utility.yul\":8133:8136   */\n      dup4\n        /* \"#utility.yul\":8074:8141   */\n      tag_125\n      jump\t// in\n    tag_237:\n        /* \"#utility.yul\":8067:8141   */\n      swap2\n      pop\n        /* \"#utility.yul\":8150:8243   */\n      tag_238\n        /* \"#utility.yul\":8239:8242   */\n      dup3\n        /* \"#utility.yul\":8150:8243   */\n      tag_131\n      jump\t// in\n    tag_238:\n        /* \"#utility.yul\":8268:8270   */\n      0x20\n        /* \"#utility.yul\":8263:8266   */\n      dup3\n        /* \"#utility.yul\":8259:8271   */\n      add\n        /* \"#utility.yul\":8252:8271   */\n      swap1\n      pop\n        /* \"#utility.yul\":7911:8277   */\n      swap2\n      swap1\n      pop\n      jump\t// out\n        /* \"#utility.yul\":8283:8702   */\n    tag_81:\n        /* \"#utility.yul\":8449:8453   */\n      0x00\n        /* \"#utility.yul\":8487:8489   */\n      0x20\n        /* \"#utility.yul\":8476:8485   */\n      dup3\n        /* \"#utility.yul\":8472:8490   */\n      add\n        /* \"#utility.yul\":8464:8490   */\n      swap1\n      pop\n        /* \"#utility.yul\":8536:8545   */\n      dup2\n        /* \"#utility.yul\":8530:8534   */\n      dup2\n        /* \"#utility.yul\":8526:8546   */\n      sub\n        /* \"#utility.yul\":8522:8523   */\n      0x00\n        /* \"#utility.yul\":8511:8520   */\n      dup4\n        /* \"#utility.yul\":8507:8524   */\n      add\n        /* \"#utility.yul\":8500:8547   */\n      mstore\n        /* \"#utility.yul\":8564:8695   */\n      tag_240\n        /* \"#utility.yul\":8690:8694   */\n      dup2\n        /* \"#utility.yul\":8564:8695   */\n      tag_132\n      jump\t// in\n    tag_240:\n        /* \"#utility.yul\":8556:8695   */\n      swap1\n      pop\n        /* \"#utility.yul\":8283:8702   */\n      swap2\n      swap1\n      pop\n      jump\t// out\n        /* \"#utility.yul\":8708:9040   */\n    tag_90:\n        /* \"#utility.yul\":8829:8833   */\n      0x00\n        /* \"#utility.yul\":8867:8869   */\n      0x40\n        /* \"#utility.yul\":8856:8865   */\n      dup3\n        /* \"#utility.yul\":8852:8870   */\n      add\n        /* \"#utility.yul\":8844:8870   */\n      swap1\n      pop\n        /* \"#utility.yul\":8880:8951   */\n      tag_242\n        /* \"#utility.yul\":8948:8949   */\n      0x00\n        /* \"#utility.yul\":8937:8946   */\n      dup4\n        /* \"#utility.yul\":8933:8950   */\n      add\n        /* \"#utility.yul\":8924:8930   */\n      dup6\n        /* \"#utility.yul\":8880:8951   */\n      tag_128\n      jump\t// in\n    tag_242:\n        /* \"#utility.yul\":8961:9033   */\n      tag_243\n        /* \"#utility.yul\":9029:9031   */\n      0x20\n        /* \"#utility.yul\":9018:9027   */\n      dup4\n        /* \"#utility.yul\":9014:9032   */\n      add\n        /* \"#utility.yul\":9005:9011   */\n      dup5\n        /* \"#utility.yul\":8961:9033   */\n      tag_114\n      jump\t// in\n    tag_243:\n        /* \"#utility.yul\":8708:9040   */\n      swap4\n      swap3\n      pop\n      pop\n      pop\n      jump\t// out\n        /* \"#utility.yul\":9046:9136   */\n    tag_133:\n        /* \"#utility.yul\":9080:9087   */\n      0x00\n        /* \"#utility.yul\":9123:9128   */\n      dup2\n        /* \"#utility.yul\":9116:9129   */\n      iszero\n        /* \"#utility.yul\":9109:9130   */\n      iszero\n        /* \"#utility.yul\":9098:9130   */\n      swap1\n      pop\n        /* \"#utility.yul\":9046:9136   */\n      swap2\n      swap1\n      pop\n      jump\t// out\n        /* \"#utility.yul\":9142:9258   */\n    tag_134:\n        /* \"#utility.yul\":9212:9233   */\n      tag_246\n        /* \"#utility.yul\":9227:9232   */\n      dup2\n        /* \"#utility.yul\":9212:9233   */\n      tag_133\n      jump\t// in\n    tag_246:\n        /* \"#utility.yul\":9205:9210   */\n      dup2\n        /* \"#utility.yul\":9202:9234   */\n      eq\n        /* \"#utility.yul\":9192:9252   */\n      tag_247\n      jumpi\n        /* \"#utility.yul\":9248:9249   */\n      0x00\n        /* \"#utility.yul\":9245:9246   */\n      dup1\n        /* \"#utility.yul\":9238:9250   */\n      revert\n        /* \"#utility.yul\":9192:9252   */\n    tag_247:\n        /* \"#utility.yul\":9142:9258   */\n      pop\n      jump\t// out\n        /* \"#utility.yul\":9264:9401   */\n    tag_135:\n        /* \"#utility.yul\":9318:9323   */\n      0x00\n        /* \"#utility.yul\":9349:9355   */\n      dup2\n        /* \"#utility.yul\":9343:9356   */\n      mload\n        /* \"#utility.yul\":9334:9356   */\n      swap1\n      pop\n        /* \"#utility.yul\":9365:9395   */\n      tag_249\n        /* \"#utility.yul\":9389:9394   */\n      dup2\n        /* \"#utility.yul\":9365:9395   */\n      tag_134\n      jump\t// in\n    tag_249:\n        /* \"#utility.yul\":9264:9401   */\n      swap3\n      swap2\n      pop\n      pop\n      jump\t// out\n        /* \"#utility.yul\":9407:9752   */\n    tag_94:\n        /* \"#utility.yul\":9474:9480   */\n      0x00\n        /* \"#utility.yul\":9523:9525   */\n      0x20\n        /* \"#utility.yul\":9511:9520   */\n      dup3\n        /* \"#utility.yul\":9502:9509   */\n      dup5\n        /* \"#utility.yul\":9498:9521   */\n      sub\n        /* \"#utility.yul\":9494:9526   */\n      slt\n        /* \"#utility.yul\":9491:9610   */\n      iszero\n      tag_251\n      jumpi\n        /* \"#utility.yul\":9529:9608   */\n      tag_252\n      tag_107\n      jump\t// in\n    tag_252:\n        /* \"#utility.yul\":9491:9610   */\n    tag_251:\n        /* \"#utility.yul\":9649:9650   */\n      0x00\n        /* \"#utility.yul\":9674:9735   */\n      tag_253\n        /* \"#utility.yul\":9727:9734   */\n      dup5\n        /* \"#utility.yul\":9718:9724   */\n      dup3\n        /* \"#utility.yul\":9707:9716   */\n      dup6\n        /* \"#utility.yul\":9703:9725   */\n      add\n        /* \"#utility.yul\":9674:9735   */\n      tag_135\n      jump\t// in\n    tag_253:\n        /* \"#utility.yul\":9664:9735   */\n      swap2\n      pop\n        /* \"#utility.yul\":9620:9745   */\n      pop\n        /* \"#utility.yul\":9407:9752   */\n      swap3\n      swap2\n      pop\n      pop\n      jump\t// out\n        /* \"#utility.yul\":9758:9930   */\n    tag_136:\n        /* \"#utility.yul\":9898:9922   */\n      0x526577617264207472616e73666572206661696c656400000000000000000000\n        /* \"#utility.yul\":9894:9895   */\n      0x00\n        /* \"#utility.yul\":9886:9892   */\n      dup3\n        /* \"#utility.yul\":9882:9896   */\n      add\n        /* \"#utility.yul\":9875:9923   */\n      mstore\n        /* \"#utility.yul\":9758:9930   */\n      pop\n      jump\t// out\n        /* \"#utility.yul\":9936:10302   */\n    tag_137:\n        /* \"#utility.yul\":10078:10081   */\n      0x00\n        /* \"#utility.yul\":10099:10166   */\n      tag_256\n        /* \"#utility.yul\":10163:10165   */\n      0x16\n        /* \"#utility.yul\":10158:10161   */\n      dup4\n        /* \"#utility.yul\":10099:10166   */\n      tag_125\n      jump\t// in\n    tag_256:\n        /* \"#utility.yul\":10092:10166   */\n      swap2\n      pop\n        /* \"#utility.yul\":10175:10268   */\n      tag_257\n        /* \"#utility.yul\":10264:10267   */\n      dup3\n        /* \"#utility.yul\":10175:10268   */\n      tag_136\n      jump\t// in\n    tag_257:\n        /* \"#utility.yul\":10293:10295   */\n      0x20\n        /* \"#utility.yul\":10288:10291   */\n      dup3\n        /* \"#utility.yul\":10284:10296   */\n      add\n        /* \"#utility.yul\":10277:10296   */\n      swap1\n      pop\n        /* \"#utility.yul\":9936:10302   */\n      swap2\n      swap1\n      pop\n      jump\t// out\n        /* \"#utility.yul\":10308:10727   */\n    tag_97:\n        /* \"#utility.yul\":10474:10478   */\n      0x00\n        /* \"#utility.yul\":10512:10514   */\n      0x20\n        /* \"#utility.yul\":10501:10510   */\n      dup3\n        /* \"#utility.yul\":10497:10515   */\n      add\n        /* \"#utility.yul\":10489:10515   */\n      swap1\n      pop\n        /* \"#utility.yul\":10561:10570   */\n      dup2\n        /* \"#utility.yul\":10555:10559   */\n      dup2\n        /* \"#utility.yul\":10551:10571   */\n      sub\n        /* \"#utility.yul\":10547:10548   */\n      0x00\n        /* \"#utility.yul\":10536:10545   */\n      dup4\n        /* \"#utility.yul\":10532:10549   */\n      add\n        /* \"#utility.yul\":10525:10572   */\n      mstore\n        /* \"#utility.yul\":10589:10720   */\n      tag_259\n        /* \"#utility.yul\":10715:10719   */\n      dup2\n        /* \"#utility.yul\":10589:10720   */\n      tag_137\n      jump\t// in\n    tag_259:\n        /* \"#utility.yul\":10581:10720   */\n      swap1\n      pop\n        /* \"#utility.yul\":10308:10727   */\n      swap2\n      swap1\n      pop\n      jump\t// out\n        /* \"#utility.yul\":10733:11065   */\n    tag_99:\n        /* \"#utility.yul\":10854:10858   */\n      0x00\n        /* \"#utility.yul\":10892:10894   */\n      0x40\n        /* \"#utility.yul\":10881:10890   */\n      dup3\n        /* \"#utility.yul\":10877:10895   */\n      add\n        /* \"#utility.yul\":10869:10895   */\n      swap1\n      pop\n        /* \"#utility.yul\":10905:10976   */\n      tag_261\n        /* \"#utility.yul\":10973:10974   */\n      0x00\n        /* \"#utility.yul\":10962:10971   */\n      dup4\n        /* \"#utility.yul\":10958:10975   */\n      add\n        /* \"#utility.yul\":10949:10955   */\n      dup6\n        /* \"#utility.yul\":10905:10976   */\n      tag_114\n      jump\t// in\n    tag_261:\n        /* \"#utility.yul\":10986:11058   */\n      tag_262\n        /* \"#utility.yul\":11054:11056   */\n      0x20\n        /* \"#utility.yul\":11043:11052   */\n      dup4\n        /* \"#utility.yul\":11039:11057   */\n      add\n        /* \"#utility.yul\":11030:11036   */\n      dup5\n        /* \"#utility.yul\":10986:11058   */\n      tag_114\n      jump\t// in\n    tag_262:\n        /* \"#utility.yul\":10733:11065   */\n      swap4\n      swap3\n      pop\n      pop\n      pop\n      jump\t// out\n        /* \"#utility.yul\":11071:11252   */\n    tag_138:\n        /* \"#utility.yul\":11211:11244   */\n      0x5265656e7472616e637947756172643a207265656e7472616e742063616c6c00\n        /* \"#utility.yul\":11207:11208   */\n      0x00\n        /* \"#utility.yul\":11199:11205   */\n      dup3\n        /* \"#utility.yul\":11195:11209   */\n      add\n        /* \"#utility.yul\":11188:11245   */\n      mstore\n        /* \"#utility.yul\":11071:11252   */\n      pop\n      jump\t// out\n        /* \"#utility.yul\":11258:11624   */\n    tag_139:\n        /* \"#utility.yul\":11400:11403   */\n      0x00\n        /* \"#utility.yul\":11421:11488   */\n      tag_265\n        /* \"#utility.yul\":11485:11487   */\n      0x1f\n        /* \"#utility.yul\":11480:11483   */\n      dup4\n        /* \"#utility.yul\":11421:11488   */\n      tag_125\n      jump\t// in\n    tag_265:\n        /* \"#utility.yul\":11414:11488   */\n      swap2\n      pop\n        /* \"#utility.yul\":11497:11590   */\n      tag_266\n        /* \"#utility.yul\":11586:11589   */\n      dup3\n        /* \"#utility.yul\":11497:11590   */\n      tag_138\n      jump\t// in\n    tag_266:\n        /* \"#utility.yul\":11615:11617   */\n      0x20\n        /* \"#utility.yul\":11610:11613   */\n      dup3\n        /* \"#utility.yul\":11606:11618   */\n      add\n        /* \"#utility.yul\":11599:11618   */\n      swap1\n      pop\n        /* \"#utility.yul\":11258:11624   */\n      swap2\n      swap1\n      pop\n      jump\t// out\n        /* \"#utility.yul\":11630:12049   */\n    tag_104:\n        /* \"#utility.yul\":11796:11800   */\n      0x00\n        /* \"#utility.yul\":11834:11836   */\n      0x20\n        /* \"#utility.yul\":11823:11832   */\n      dup3\n        /* \"#utility.yul\":11819:11837   */\n      add\n        /* \"#utility.yul\":11811:11837   */\n      swap1\n      pop\n        /* \"#utility.yul\":11883:11892   */\n      dup2\n        /* \"#utility.yul\":11877:11881   */\n      dup2\n        /* \"#utility.yul\":11873:11893   */\n      sub\n        /* \"#utility.yul\":11869:11870   */\n      0x00\n        /* \"#utility.yul\":11858:11867   */\n      dup4\n        /* \"#utility.yul\":11854:11871   */\n      add\n        /* \"#utility.yul\":11847:11894   */\n      mstore\n        /* \"#utility.yul\":11911:12042   */\n      tag_268\n        /* \"#utility.yul\":12037:12041   */\n      dup2\n        /* \"#utility.yul\":11911:12042   */\n      tag_139\n      jump\t// in\n    tag_268:\n        /* \"#utility.yul\":11903:12042   */\n      swap1\n      pop\n        /* \"#utility.yul\":11630:12049   */\n      swap2\n      swap1\n      pop\n      jump\t// out\n\n    auxdata: 0xa2646970667358221220db00864506980d08a1b1afc22b9b2a93a81fe783fa83cdd2800437285fe95d3e64736f6c634300081a0033\n}\n",
				"bytecode": {
					"linkReferences": {},
					"object": "60806040526032600355348015610014575f80fd5b50604051610fca380380610fca83398181016040528101906100369190610122565b60015f819055508160015f6101000a81548173ffffffffffffffffffffffffffffffffffffffff021916908373ffffffffffffffffffffffffffffffffffffffff1602179055508060025f6101000a81548173ffffffffffffffffffffffffffffffffffffffff021916908373ffffffffffffffffffffffffffffffffffffffff1602179055505050610160565b5f80fd5b5f73ffffffffffffffffffffffffffffffffffffffff82169050919050565b5f6100f1826100c8565b9050919050565b610101816100e7565b811461010b575f80fd5b50565b5f8151905061011c816100f8565b92915050565b5f8060408385031215610138576101376100c4565b5b5f6101458582860161010e565b92505060206101568582860161010e565b9150509250929050565b610e5d8061016d5f395ff3fe608060405234801561000f575f80fd5b5060043610610086575f3560e01c8063d56d229d11610059578063d56d229d14610114578063d82e396214610132578063e0a747fe14610162578063fc0c546a1461016c57610086565b806316934fc41461008a5780636eb604e0146100bc5780637b0a47ee146100d85780637efad8e0146100f6575b5f80fd5b6100a4600480360381019061009f9190610882565b61018a565b6040516100b3939291906108c5565b60405180910390f35b6100d660048036038101906100d19190610924565b6101b0565b005b6100e0610421565b6040516100ed919061094f565b60405180910390f35b6100fe610427565b60405161010b919061094f565b60405180910390f35b61011c61042d565b60405161012991906109c3565b60405180910390f35b61014c60048036038101906101479190610882565b610452565b604051610159919061094f565b60405180910390f35b61016a610514565b005b6101746107a9565b60405161018191906109fc565b60405180910390f35b6004602052805f5260405f205f91509050805f0154908060010154908060020154905083565b6101b86107ce565b3373ffffffffffffffffffffffffffffffffffffffff1660015f9054906101000a900473ffffffffffffffffffffffffffffffffffffffff1673ffffffffffffffffffffffffffffffffffffffff16636352211e836040518263ffffffff1660e01b8152600401610229919061094f565b602060405180830381865afa158015610244573d5f803e3d5ffd5b505050506040513d601f19601f820116820180604052508101906102689190610a29565b73ffffffffffffffffffffffffffffffffffffffff16146102be576040517f08c379a00000000000000000000000000000000000000000000000000000000081526004016102b590610aae565b60405180910390fd5b60015f9054906101000a900473ffffffffffffffffffffffffffffffffffffffff1673ffffffffffffffffffffffffffffffffffffffff166323b872dd3330846040518463ffffffff1660e01b815260040161031c93929190610adb565b5f604051808303815f87803b158015610333575f80fd5b505af1158015610345573d5f803e3d5ffd5b505050505f60045f3373ffffffffffffffffffffffffffffffffffffffff1673ffffffffffffffffffffffffffffffffffffffff1681526020019081526020015f2090505f815f0154146103b65761039c33610452565b816002015f8282546103ae9190610b3d565b925050819055505b81815f01819055504281600101819055503373ffffffffffffffffffffffffffffffffffffffff167f0cda5cf38f6592672c7b4a22ff3d50874d1913629bd5ffedc27b7b40503d60fd8360405161040d919061094f565b60405180910390a25061041e61081b565b50565b60035481565b61271081565b60015f9054906101000a900473ffffffffffffffffffffffffffffffffffffffff1681565b5f8060045f8473ffffffffffffffffffffffffffffffffffffffff1673ffffffffffffffffffffffffffffffffffffffff1681526020019081526020015f206040518060600160405290815f82015481526020016001820154815260200160028201548152505090505f815f0151036104ce575f91505061050f565b5f8160200151426104df9190610b70565b9050620151806127106104f29190610ba3565b816003546105009190610ba3565b61050a9190610c11565b925050505b919050565b61051c6107ce565b5f60045f3373ffffffffffffffffffffffffffffffffffffffff1673ffffffffffffffffffffffffffffffffffffffff1681526020019081526020015f2090505f815f0154036105a1576040517f08c379a000000000000000000000000000000000000000000000000000000000815260040161059890610c8b565b60405180910390fd5b5f81600201546105b033610452565b6105ba9190610b3d565b90505f825f015490505f835f01819055505f83600101819055505f836002018190555060015f9054906101000a900473ffffffffffffffffffffffffffffffffffffffff1673ffffffffffffffffffffffffffffffffffffffff166323b872dd3033846040518463ffffffff1660e01b815260040161063b93929190610adb565b5f604051808303815f87803b158015610652575f80fd5b505af1158015610664573d5f803e3d5ffd5b505050505f82111561074c5760025f9054906101000a900473ffffffffffffffffffffffffffffffffffffffff1673ffffffffffffffffffffffffffffffffffffffff1663a9059cbb33846040518363ffffffff1660e01b81526004016106cc929190610ca9565b6020604051808303815f875af11580156106e8573d5f803e3d5ffd5b505050506040513d601f19601f8201168201806040525081019061070c9190610d05565b61074b576040517f08c379a000000000000000000000000000000000000000000000000000000000815260040161074290610d7a565b60405180910390fd5b5b3373ffffffffffffffffffffffffffffffffffffffff167fc486b9458a8637650d84d262414833a5a457bc91ae86b7da110386c8c3fa255b8284604051610794929190610d98565b60405180910390a25050506107a761081b565b565b60025f9054906101000a900473ffffffffffffffffffffffffffffffffffffffff1681565b60025f5403610812576040517f08c379a000000000000000000000000000000000000000000000000000000000815260040161080990610e09565b60405180910390fd5b60025f81905550565b60015f81905550565b5f80fd5b5f73ffffffffffffffffffffffffffffffffffffffff82169050919050565b5f61085182610828565b9050919050565b61086181610847565b811461086b575f80fd5b50565b5f8135905061087c81610858565b92915050565b5f6020828403121561089757610896610824565b5b5f6108a48482850161086e565b91505092915050565b5f819050919050565b6108bf816108ad565b82525050565b5f6060820190506108d85f8301866108b6565b6108e560208301856108b6565b6108f260408301846108b6565b949350505050565b610903816108ad565b811461090d575f80fd5b50565b5f8135905061091e816108fa565b92915050565b5f6020828403121561093957610938610824565b5b5f61094684828501610910565b91505092915050565b5f6020820190506109625f8301846108b6565b92915050565b5f819050919050565b5f61098b61098661098184610828565b610968565b610828565b9050919050565b5f61099c82610971565b9050919050565b5f6109ad82610992565b9050919050565b6109bd816109a3565b82525050565b5f6020820190506109d65f8301846109b4565b92915050565b5f6109e682610992565b9050919050565b6109f6816109dc565b82525050565b5f602082019050610a0f5f8301846109ed565b92915050565b5f81519050610a2381610858565b92915050565b5f60208284031215610a3e57610a3d610824565b5b5f610a4b84828501610a15565b91505092915050565b5f82825260208201905092915050565b7f4e6f74206f776e657200000000000000000000000000000000000000000000005f82015250565b5f610a98600983610a54565b9150610aa382610a64565b602082019050919050565b5f6020820190508181035f830152610ac581610a8c565b9050919050565b610ad581610847565b82525050565b5f606082019050610aee5f830186610acc565b610afb6020830185610acc565b610b0860408301846108b6565b949350505050565b7f4e487b71000000000000000000000000000000000000000000000000000000005f52601160045260245ffd5b5f610b47826108ad565b9150610b52836108ad565b9250828201905080821115610b6a57610b69610b10565b5b92915050565b5f610b7a826108ad565b9150610b85836108ad565b9250828203905081811115610b9d57610b9c610b10565b5b92915050565b5f610bad826108ad565b9150610bb8836108ad565b9250828202610bc6816108ad565b91508282048414831517610bdd57610bdc610b10565b5b5092915050565b7f4e487b71000000000000000000000000000000000000000000000000000000005f52601260045260245ffd5b5f610c1b826108ad565b9150610c26836108ad565b925082610c3657610c35610be4565b5b828204905092915050565b7f4e6f204e4654207374616b6564000000000000000000000000000000000000005f82015250565b5f610c75600d83610a54565b9150610c8082610c41565b602082019050919050565b5f6020820190508181035f830152610ca281610c69565b9050919050565b5f604082019050610cbc5f830185610acc565b610cc960208301846108b6565b9392505050565b5f8115159050919050565b610ce481610cd0565b8114610cee575f80fd5b50565b5f81519050610cff81610cdb565b92915050565b5f60208284031215610d1a57610d19610824565b5b5f610d2784828501610cf1565b91505092915050565b7f526577617264207472616e73666572206661696c6564000000000000000000005f82015250565b5f610d64601683610a54565b9150610d6f82610d30565b602082019050919050565b5f6020820190508181035f830152610d9181610d58565b9050919050565b5f604082019050610dab5f8301856108b6565b610db860208301846108b6565b9392505050565b7f5265656e7472616e637947756172643a207265656e7472616e742063616c6c005f82015250565b5f610df3601f83610a54565b9150610dfe82610dbf565b602082019050919050565b5f6020820190508181035f830152610e2081610de7565b905091905056fea2646970667358221220db00864506980d08a1b1afc22b9b2a93a81fe783fa83cdd2800437285fe95d3e64736f6c634300081a0033",
					"opcodes": "PUSH1 0x80 PUSH1 0x40 MSTORE PUSH1 0x32 PUSH1 0x3 SSTORE CALLVALUE DUP1 ISZERO PUSH2 0x14 JUMPI PUSH0 DUP1 REVERT JUMPDEST POP PUSH1 0x40 MLOAD PUSH2 0xFCA CODESIZE SUB DUP1 PUSH2 0xFCA DUP4 CODECOPY DUP2 DUP2 ADD PUSH1 0x40 MSTORE DUP2 ADD SWAP1 PUSH2 0x36 SWAP2 SWAP1 PUSH2 0x122 JUMP JUMPDEST PUSH1 0x1 PUSH0 DUP2 SWAP1 SSTORE POP DUP2 PUSH1 0x1 PUSH0 PUSH2 0x100 EXP DUP2 SLOAD DUP2 PUSH20 0xFFFFFFFFFFFFFFFFFFFFFFFFFFFFFFFFFFFFFFFF MUL NOT AND SWAP1 DUP4 PUSH20 0xFFFFFFFFFFFFFFFFFFFFFFFFFFFFFFFFFFFFFFFF AND MUL OR SWAP1 SSTORE POP DUP1 PUSH1 0x2 PUSH0 PUSH2 0x100 EXP DUP2 SLOAD DUP2 PUSH20 0xFFFFFFFFFFFFFFFFFFFFFFFFFFFFFFFFFFFFFFFF MUL NOT AND SWAP1 DUP4 PUSH20 0xFFFFFFFFFFFFFFFFFFFFFFFFFFFFFFFFFFFFFFFF AND MUL OR SWAP1 SSTORE POP POP POP PUSH2 0x160 JUMP JUMPDEST PUSH0 DUP1 REVERT JUMPDEST PUSH0 PUSH20 0xFFFFFFFFFFFFFFFFFFFFFFFFFFFFFFFFFFFFFFFF DUP3 AND SWAP1 POP SWAP2 SWAP1 POP JUMP JUMPDEST PUSH0 PUSH2 0xF1 DUP3 PUSH2 0xC8 JUMP JUMPDEST SWAP1 POP SWAP2 SWAP1 POP JUMP JUMPDEST PUSH2 0x101 DUP2 PUSH2 0xE7 JUMP JUMPDEST DUP2 EQ PUSH2 0x10B JUMPI PUSH0 DUP1 REVERT JUMPDEST POP JUMP JUMPDEST PUSH0 DUP2 MLOAD SWAP1 POP PUSH2 0x11C DUP2 PUSH2 0xF8 JUMP JUMPDEST SWAP3 SWAP2 POP POP JUMP JUMPDEST PUSH0 DUP1 PUSH1 0x40 DUP4 DUP6 SUB SLT ISZERO PUSH2 0x138 JUMPI PUSH2 0x137 PUSH2 0xC4 JUMP JUMPDEST JUMPDEST PUSH0 PUSH2 0x145 DUP6 DUP3 DUP7 ADD PUSH2 0x10E JUMP JUMPDEST SWAP3 POP POP PUSH1 0x20 PUSH2 0x156 DUP6 DUP3 DUP7 ADD PUSH2 0x10E JUMP JUMPDEST SWAP2 POP POP SWAP3 POP SWAP3 SWAP1 POP JUMP JUMPDEST PUSH2 0xE5D DUP1 PUSH2 0x16D PUSH0 CODECOPY PUSH0 RETURN INVALID PUSH1 0x80 PUSH1 0x40 MSTORE CALLVALUE DUP1 ISZERO PUSH2 0xF JUMPI PUSH0 DUP1 REVERT JUMPDEST POP PUSH1 0x4 CALLDATASIZE LT PUSH2 0x86 JUMPI PUSH0 CALLDATALOAD PUSH1 0xE0 SHR DUP1 PUSH4 0xD56D229D GT PUSH2 0x59 JUMPI DUP1 PUSH4 0xD56D229D EQ PUSH2 0x114 JUMPI DUP1 PUSH4 0xD82E3962 EQ PUSH2 0x132 JUMPI DUP1 PUSH4 0xE0A747FE EQ PUSH2 0x162 JUMPI DUP1 PUSH4 0xFC0C546A EQ PUSH2 0x16C JUMPI PUSH2 0x86 JUMP JUMPDEST DUP1 PUSH4 0x16934FC4 EQ PUSH2 0x8A JUMPI DUP1 PUSH4 0x6EB604E0 EQ PUSH2 0xBC JUMPI DUP1 PUSH4 0x7B0A47EE EQ PUSH2 0xD8 JUMPI DUP1 PUSH4 0x7EFAD8E0 EQ PUSH2 0xF6 JUMPI JUMPDEST PUSH0 DUP1 REVERT JUMPDEST PUSH2 0xA4 PUSH1 0x4 DUP1 CALLDATASIZE SUB DUP2 ADD SWAP1 PUSH2 0x9F SWAP2 SWAP1 PUSH2 0x882 JUMP JUMPDEST PUSH2 0x18A JUMP JUMPDEST PUSH1 0x40 MLOAD PUSH2 0xB3 SWAP4 SWAP3 SWAP2 SWAP1 PUSH2 0x8C5 JUMP JUMPDEST PUSH1 0x40 MLOAD DUP1 SWAP2 SUB SWAP1 RETURN JUMPDEST PUSH2 0xD6 PUSH1 0x4 DUP1 CALLDATASIZE SUB DUP2 ADD SWAP1 PUSH2 0xD1 SWAP2 SWAP1 PUSH2 0x924 JUMP JUMPDEST PUSH2 0x1B0 JUMP JUMPDEST STOP JUMPDEST PUSH2 0xE0 PUSH2 0x421 JUMP JUMPDEST PUSH1 0x40 MLOAD PUSH2 0xED SWAP2 SWAP1 PUSH2 0x94F JUMP JUMPDEST PUSH1 0x40 MLOAD DUP1 SWAP2 SUB SWAP1 RETURN JUMPDEST PUSH2 0xFE PUSH2 0x427 JUMP JUMPDEST PUSH1 0x40 MLOAD PUSH2 0x10B SWAP2 SWAP1 PUSH2 0x94F JUMP JUMPDEST PUSH1 0x40 MLOAD DUP1 SWAP2 SUB SWAP1 RETURN JUMPDEST PUSH2 0x11C PUSH2 0x42D JUMP JUMPDEST PUSH1 0x40 MLOAD PUSH2 0x129 SWAP2 SWAP1 PUSH2 0x9C3 JUMP JUMPDEST PUSH1 0x40 MLOAD DUP1 SWAP2 SUB SWAP1 RETURN JUMPDEST PUSH2 0x14C PUSH1 0x4 DUP1 CALLDATASIZE SUB DUP2 ADD SWAP1 PUSH2 0x147 SWAP2 SWAP1 PUSH2 0x882 JUMP JUMPDEST PUSH2 0x452 JUMP JUMPDEST PUSH1 0x40 MLOAD PUSH2 0x159 SWAP2 SWAP1 PUSH2 0x94F JUMP JUMPDEST PUSH1 0x40 MLOAD DUP1 SWAP2 SUB SWAP1 RETURN JUMPDEST PUSH2 0x16A PUSH2 0x514 JUMP JUMPDEST STOP JUMPDEST PUSH2 0x174 PUSH2 0x7A9 JUMP JUMPDEST PUSH1 0x40 MLOAD PUSH2 0x181 SWAP2 SWAP1 PUSH2 0x9FC JUMP JUMPDEST PUSH1 0x40 MLOAD DUP1 SWAP2 SUB SWAP1 RETURN JUMPDEST PUSH1 0x4 PUSH1 0x20 MSTORE DUP1 PUSH0 MSTORE PUSH1 0x40 PUSH0 KECCAK256 PUSH0 SWAP2 POP SWAP1 POP DUP1 PUSH0 ADD SLOAD SWAP1 DUP1 PUSH1 0x1 ADD SLOAD SWAP1 DUP1 PUSH1 0x2 ADD SLOAD SWAP1 POP DUP4 JUMP JUMPDEST PUSH2 0x1B8 PUSH2 0x7CE JUMP JUMPDEST CALLER PUSH20 0xFFFFFFFFFFFFFFFFFFFFFFFFFFFFFFFFFFFFFFFF AND PUSH1 0x1 PUSH0 SWAP1 SLOAD SWAP1 PUSH2 0x100 EXP SWAP1 DIV PUSH20 0xFFFFFFFFFFFFFFFFFFFFFFFFFFFFFFFFFFFFFFFF AND PUSH20 0xFFFFFFFFFFFFFFFFFFFFFFFFFFFFFFFFFFFFFFFF AND PUSH4 0x6352211E DUP4 PUSH1 0x40 MLOAD DUP3 PUSH4 0xFFFFFFFF AND PUSH1 0xE0 SHL DUP2 MSTORE PUSH1 0x4 ADD PUSH2 0x229 SWAP2 SWAP1 PUSH2 0x94F JUMP JUMPDEST PUSH1 0x20 PUSH1 0x40 MLOAD DUP1 DUP4 SUB DUP2 DUP7 GAS STATICCALL ISZERO DUP1 ISZERO PUSH2 0x244 JUMPI RETURNDATASIZE PUSH0 DUP1 RETURNDATACOPY RETURNDATASIZE PUSH0 REVERT JUMPDEST POP POP POP POP PUSH1 0x40 MLOAD RETURNDATASIZE PUSH1 0x1F NOT PUSH1 0x1F DUP3 ADD AND DUP3 ADD DUP1 PUSH1 0x40 MSTORE POP DUP2 ADD SWAP1 PUSH2 0x268 SWAP2 SWAP1 PUSH2 0xA29 JUMP JUMPDEST PUSH20 0xFFFFFFFFFFFFFFFFFFFFFFFFFFFFFFFFFFFFFFFF AND EQ PUSH2 0x2BE JUMPI PUSH1 0x40 MLOAD PUSH32 0x8C379A000000000000000000000000000000000000000000000000000000000 DUP2 MSTORE PUSH1 0x4 ADD PUSH2 0x2B5 SWAP1 PUSH2 0xAAE JUMP JUMPDEST PUSH1 0x40 MLOAD DUP1 SWAP2 SUB SWAP1 REVERT JUMPDEST PUSH1 0x1 PUSH0 SWAP1 SLOAD SWAP1 PUSH2 0x100 EXP SWAP1 DIV PUSH20 0xFFFFFFFFFFFFFFFFFFFFFFFFFFFFFFFFFFFFFFFF AND PUSH20 0xFFFFFFFFFFFFFFFFFFFFFFFFFFFFFFFFFFFFFFFF AND PUSH4 0x23B872DD CALLER ADDRESS DUP5 PUSH1 0x40 MLOAD DUP5 PUSH4 0xFFFFFFFF AND PUSH1 0xE0 SHL DUP2 MSTORE PUSH1 0x4 ADD PUSH2 0x31C SWAP4 SWAP3 SWAP2 SWAP1 PUSH2 0xADB JUMP JUMPDEST PUSH0 PUSH1 0x40 MLOAD DUP1 DUP4 SUB DUP2 PUSH0 DUP8 DUP1 EXTCODESIZE ISZERO DUP1 ISZERO PUSH2 0x333 JUMPI PUSH0 DUP1 REVERT JUMPDEST POP GAS CALL ISZERO DUP1 ISZERO PUSH2 0x345 JUMPI RETURNDATASIZE PUSH0 DUP1 RETURNDATACOPY RETURNDATASIZE PUSH0 REVERT JUMPDEST POP POP POP POP PUSH0 PUSH1 0x4 PUSH0 CALLER PUSH20 0xFFFFFFFFFFFFFFFFFFFFFFFFFFFFFFFFFFFFFFFF AND PUSH20 0xFFFFFFFFFFFFFFFFFFFFFFFFFFFFFFFFFFFFFFFF AND DUP2 MSTORE PUSH1 0x20 ADD SWAP1 DUP2 MSTORE PUSH1 0x20 ADD PUSH0 KECCAK256 SWAP1 POP PUSH0 DUP2 PUSH0 ADD SLOAD EQ PUSH2 0x3B6 JUMPI PUSH2 0x39C CALLER PUSH2 0x452 JUMP JUMPDEST DUP2 PUSH1 0x2 ADD PUSH0 DUP3 DUP3 SLOAD PUSH2 0x3AE SWAP2 SWAP1 PUSH2 0xB3D JUMP JUMPDEST SWAP3 POP POP DUP2 SWAP1 SSTORE POP JUMPDEST DUP2 DUP2 PUSH0 ADD DUP2 SWAP1 SSTORE POP TIMESTAMP DUP2 PUSH1 0x1 ADD DUP2 SWAP1 SSTORE POP CALLER PUSH20 0xFFFFFFFFFFFFFFFFFFFFFFFFFFFFFFFFFFFFFFFF AND PUSH32 0xCDA5CF38F6592672C7B4A22FF3D50874D1913629BD5FFEDC27B7B40503D60FD DUP4 PUSH1 0x40 MLOAD PUSH2 0x40D SWAP2 SWAP1 PUSH2 0x94F JUMP JUMPDEST PUSH1 0x40 MLOAD DUP1 SWAP2 SUB SWAP1 LOG2 POP PUSH2 0x41E PUSH2 0x81B JUMP JUMPDEST POP JUMP JUMPDEST PUSH1 0x3 SLOAD DUP2 JUMP JUMPDEST PUSH2 0x2710 DUP2 JUMP JUMPDEST PUSH1 0x1 PUSH0 SWAP1 SLOAD SWAP1 PUSH2 0x100 EXP SWAP1 DIV PUSH20 0xFFFFFFFFFFFFFFFFFFFFFFFFFFFFFFFFFFFFFFFF AND DUP2 JUMP JUMPDEST PUSH0 DUP1 PUSH1 0x4 PUSH0 DUP5 PUSH20 0xFFFFFFFFFFFFFFFFFFFFFFFFFFFFFFFFFFFFFFFF AND PUSH20 0xFFFFFFFFFFFFFFFFFFFFFFFFFFFFFFFFFFFFFFFF AND DUP2 MSTORE PUSH1 0x20 ADD SWAP1 DUP2 MSTORE PUSH1 0x20 ADD PUSH0 KECCAK256 PUSH1 0x40 MLOAD DUP1 PUSH1 0x60 ADD PUSH1 0x40 MSTORE SWAP1 DUP2 PUSH0 DUP3 ADD SLOAD DUP2 MSTORE PUSH1 0x20 ADD PUSH1 0x1 DUP3 ADD SLOAD DUP2 MSTORE PUSH1 0x20 ADD PUSH1 0x2 DUP3 ADD SLOAD DUP2 MSTORE POP POP SWAP1 POP PUSH0 DUP2 PUSH0 ADD MLOAD SUB PUSH2 0x4CE JUMPI PUSH0 SWAP2 POP POP PUSH2 0x50F JUMP JUMPDEST PUSH0 DUP2 PUSH1 0x20 ADD MLOAD TIMESTAMP PUSH2 0x4DF SWAP2 SWAP1 PUSH2 0xB70 JUMP JUMPDEST SWAP1 POP PUSH3 0x15180 PUSH2 0x2710 PUSH2 0x4F2 SWAP2 SWAP1 PUSH2 0xBA3 JUMP JUMPDEST DUP2 PUSH1 0x3 SLOAD PUSH2 0x500 SWAP2 SWAP1 PUSH2 0xBA3 JUMP JUMPDEST PUSH2 0x50A SWAP2 SWAP1 PUSH2 0xC11 JUMP JUMPDEST SWAP3 POP POP POP JUMPDEST SWAP2 SWAP1 POP JUMP JUMPDEST PUSH2 0x51C PUSH2 0x7CE JUMP JUMPDEST PUSH0 PUSH1 0x4 PUSH0 CALLER PUSH20 0xFFFFFFFFFFFFFFFFFFFFFFFFFFFFFFFFFFFFFFFF AND PUSH20 0xFFFFFFFFFFFFFFFFFFFFFFFFFFFFFFFFFFFFFFFF AND DUP2 MSTORE PUSH1 0x20 ADD SWAP1 DUP2 MSTORE PUSH1 0x20 ADD PUSH0 KECCAK256 SWAP1 POP PUSH0 DUP2 PUSH0 ADD SLOAD SUB PUSH2 0x5A1 JUMPI PUSH1 0x40 MLOAD PUSH32 0x8C379A000000000000000000000000000000000000000000000000000000000 DUP2 MSTORE PUSH1 0x4 ADD PUSH2 0x598 SWAP1 PUSH2 0xC8B JUMP JUMPDEST PUSH1 0x40 MLOAD DUP1 SWAP2 SUB SWAP1 REVERT JUMPDEST PUSH0 DUP2 PUSH1 0x2 ADD SLOAD PUSH2 0x5B0 CALLER PUSH2 0x452 JUMP JUMPDEST PUSH2 0x5BA SWAP2 SWAP1 PUSH2 0xB3D JUMP JUMPDEST SWAP1 POP PUSH0 DUP3 PUSH0 ADD SLOAD SWAP1 POP PUSH0 DUP4 PUSH0 ADD DUP2 SWAP1 SSTORE POP PUSH0 DUP4 PUSH1 0x1 ADD DUP2 SWAP1 SSTORE POP PUSH0 DUP4 PUSH1 0x2 ADD DUP2 SWAP1 SSTORE POP PUSH1 0x1 PUSH0 SWAP1 SLOAD SWAP1 PUSH2 0x100 EXP SWAP1 DIV PUSH20 0xFFFFFFFFFFFFFFFFFFFFFFFFFFFFFFFFFFFFFFFF AND PUSH20 0xFFFFFFFFFFFFFFFFFFFFFFFFFFFFFFFFFFFFFFFF AND PUSH4 0x23B872DD ADDRESS CALLER DUP5 PUSH1 0x40 MLOAD DUP5 PUSH4 0xFFFFFFFF AND PUSH1 0xE0 SHL DUP2 MSTORE PUSH1 0x4 ADD PUSH2 0x63B SWAP4 SWAP3 SWAP2 SWAP1 PUSH2 0xADB JUMP JUMPDEST PUSH0 PUSH1 0x40 MLOAD DUP1 DUP4 SUB DUP2 PUSH0 DUP8 DUP1 EXTCODESIZE ISZERO DUP1 ISZERO PUSH2 0x652 JUMPI PUSH0 DUP1 REVERT JUMPDEST POP GAS CALL ISZERO DUP1 ISZERO PUSH2 0x664 JUMPI RETURNDATASIZE PUSH0 DUP1 RETURNDATACOPY RETURNDATASIZE PUSH0 REVERT JUMPDEST POP POP POP POP PUSH0 DUP3 GT ISZERO PUSH2 0x74C JUMPI PUSH1 0x2 PUSH0 SWAP1 SLOAD SWAP1 PUSH2 0x100 EXP SWAP1 DIV PUSH20 0xFFFFFFFFFFFFFFFFFFFFFFFFFFFFFFFFFFFFFFFF AND PUSH20 0xFFFFFFFFFFFFFFFFFFFFFFFFFFFFFFFFFFFFFFFF AND PUSH4 0xA9059CBB CALLER DUP5 PUSH1 0x40 MLOAD DUP4 PUSH4 0xFFFFFFFF AND PUSH1 0xE0 SHL DUP2 MSTORE PUSH1 0x4 ADD PUSH2 0x6CC SWAP3 SWAP2 SWAP1 PUSH2 0xCA9 JUMP JUMPDEST PUSH1 0x20 PUSH1 0x40 MLOAD DUP1 DUP4 SUB DUP2 PUSH0 DUP8 GAS CALL ISZERO DUP1 ISZERO PUSH2 0x6E8 JUMPI RETURNDATASIZE PUSH0 DUP1 RETURNDATACOPY RETURNDATASIZE PUSH0 REVERT JUMPDEST POP POP POP POP PUSH1 0x40 MLOAD RETURNDATASIZE PUSH1 0x1F NOT PUSH1 0x1F DUP3 ADD AND DUP3 ADD DUP1 PUSH1 0x40 MSTORE POP DUP2 ADD SWAP1 PUSH2 0x70C SWAP2 SWAP1 PUSH2 0xD05 JUMP JUMPDEST PUSH2 0x74B JUMPI PUSH1 0x40 MLOAD PUSH32 0x8C379A000000000000000000000000000000000000000000000000000000000 DUP2 MSTORE PUSH1 0x4 ADD PUSH2 0x742 SWAP1 PUSH2 0xD7A JUMP JUMPDEST PUSH1 0x40 MLOAD DUP1 SWAP2 SUB SWAP1 REVERT JUMPDEST JUMPDEST CALLER PUSH20 0xFFFFFFFFFFFFFFFFFFFFFFFFFFFFFFFFFFFFFFFF AND PUSH32 0xC486B9458A8637650D84D262414833A5A457BC91AE86B7DA110386C8C3FA255B DUP3 DUP5 PUSH1 0x40 MLOAD PUSH2 0x794 SWAP3 SWAP2 SWAP1 PUSH2 0xD98 JUMP JUMPDEST PUSH1 0x40 MLOAD DUP1 SWAP2 SUB SWAP1 LOG2 POP POP POP PUSH2 0x7A7 PUSH2 0x81B JUMP JUMPDEST JUMP JUMPDEST PUSH1 0x2 PUSH0 SWAP1 SLOAD SWAP1 PUSH2 0x100 EXP SWAP1 DIV PUSH20 0xFFFFFFFFFFFFFFFFFFFFFFFFFFFFFFFFFFFFFFFF AND DUP2 JUMP JUMPDEST PUSH1 0x2 PUSH0 SLOAD SUB PUSH2 0x812 JUMPI PUSH1 0x40 MLOAD PUSH32 0x8C379A000000000000000000000000000000000000000000000000000000000 DUP2 MSTORE PUSH1 0x4 ADD PUSH2 0x809 SWAP1 PUSH2 0xE09 JUMP JUMPDEST PUSH1 0x40 MLOAD DUP1 SWAP2 SUB SWAP1 REVERT JUMPDEST PUSH1 0x2 PUSH0 DUP2 SWAP1 SSTORE POP JUMP JUMPDEST PUSH1 0x1 PUSH0 DUP2 SWAP1 SSTORE POP JUMP JUMPDEST PUSH0 DUP1 REVERT JUMPDEST PUSH0 PUSH20 0xFFFFFFFFFFFFFFFFFFFFFFFFFFFFFFFFFFFFFFFF DUP3 AND SWAP1 POP SWAP2 SWAP1 POP JUMP JUMPDEST PUSH0 PUSH2 0x851 DUP3 PUSH2 0x828 JUMP JUMPDEST SWAP1 POP SWAP2 SWAP1 POP JUMP JUMPDEST PUSH2 0x861 DUP2 PUSH2 0x847 JUMP JUMPDEST DUP2 EQ PUSH2 0x86B JUMPI PUSH0 DUP1 REVERT JUMPDEST POP JUMP JUMPDEST PUSH0 DUP2 CALLDATALOAD SWAP1 POP PUSH2 0x87C DUP2 PUSH2 0x858 JUMP JUMPDEST SWAP3 SWAP2 POP POP JUMP JUMPDEST PUSH0 PUSH1 0x20 DUP3 DUP5 SUB SLT ISZERO PUSH2 0x897 JUMPI PUSH2 0x896 PUSH2 0x824 JUMP JUMPDEST JUMPDEST PUSH0 PUSH2 0x8A4 DUP5 DUP3 DUP6 ADD PUSH2 0x86E JUMP JUMPDEST SWAP2 POP POP SWAP3 SWAP2 POP POP JUMP JUMPDEST PUSH0 DUP2 SWAP1 POP SWAP2 SWAP1 POP JUMP JUMPDEST PUSH2 0x8BF DUP2 PUSH2 0x8AD JUMP JUMPDEST DUP3 MSTORE POP POP JUMP JUMPDEST PUSH0 PUSH1 0x60 DUP3 ADD SWAP1 POP PUSH2 0x8D8 PUSH0 DUP4 ADD DUP7 PUSH2 0x8B6 JUMP JUMPDEST PUSH2 0x8E5 PUSH1 0x20 DUP4 ADD DUP6 PUSH2 0x8B6 JUMP JUMPDEST PUSH2 0x8F2 PUSH1 0x40 DUP4 ADD DUP5 PUSH2 0x8B6 JUMP JUMPDEST SWAP5 SWAP4 POP POP POP POP JUMP JUMPDEST PUSH2 0x903 DUP2 PUSH2 0x8AD JUMP JUMPDEST DUP2 EQ PUSH2 0x90D JUMPI PUSH0 DUP1 REVERT JUMPDEST POP JUMP JUMPDEST PUSH0 DUP2 CALLDATALOAD SWAP1 POP PUSH2 0x91E DUP2 PUSH2 0x8FA JUMP JUMPDEST SWAP3 SWAP2 POP POP JUMP JUMPDEST PUSH0 PUSH1 0x20 DUP3 DUP5 SUB SLT ISZERO PUSH2 0x939 JUMPI PUSH2 0x938 PUSH2 0x824 JUMP JUMPDEST JUMPDEST PUSH0 PUSH2 0x946 DUP5 DUP3 DUP6 ADD PUSH2 0x910 JUMP JUMPDEST SWAP2 POP POP SWAP3 SWAP2 POP POP JUMP JUMPDEST PUSH0 PUSH1 0x20 DUP3 ADD SWAP1 POP PUSH2 0x962 PUSH0 DUP4 ADD DUP5 PUSH2 0x8B6 JUMP JUMPDEST SWAP3 SWAP2 POP POP JUMP JUMPDEST PUSH0 DUP2 SWAP1 POP SWAP2 SWAP1 POP JUMP JUMPDEST PUSH0 PUSH2 0x98B PUSH2 0x986 PUSH2 0x981 DUP5 PUSH2 0x828 JUMP JUMPDEST PUSH2 0x968 JUMP JUMPDEST PUSH2 0x828 JUMP JUMPDEST SWAP1 POP SWAP2 SWAP1 POP JUMP JUMPDEST PUSH0 PUSH2 0x99C DUP3 PUSH2 0x971 JUMP JUMPDEST SWAP1 POP SWAP2 SWAP1 POP JUMP JUMPDEST PUSH0 PUSH2 0x9AD DUP3 PUSH2 0x992 JUMP JUMPDEST SWAP1 POP SWAP2 SWAP1 POP JUMP JUMPDEST PUSH2 0x9BD DUP2 PUSH2 0x9A3 JUMP JUMPDEST DUP3 MSTORE POP POP JUMP JUMPDEST PUSH0 PUSH1 0x20 DUP3 ADD SWAP1 POP PUSH2 0x9D6 PUSH0 DUP4 ADD DUP5 PUSH2 0x9B4 JUMP JUMPDEST SWAP3 SWAP2 POP POP JUMP JUMPDEST PUSH0 PUSH2 0x9E6 DUP3 PUSH2 0x992 JUMP JUMPDEST SWAP1 POP SWAP2 SWAP1 POP JUMP JUMPDEST PUSH2 0x9F6 DUP2 PUSH2 0x9DC JUMP JUMPDEST DUP3 MSTORE POP POP JUMP JUMPDEST PUSH0 PUSH1 0x20 DUP3 ADD SWAP1 POP PUSH2 0xA0F PUSH0 DUP4 ADD DUP5 PUSH2 0x9ED JUMP JUMPDEST SWAP3 SWAP2 POP POP JUMP JUMPDEST PUSH0 DUP2 MLOAD SWAP1 POP PUSH2 0xA23 DUP2 PUSH2 0x858 JUMP JUMPDEST SWAP3 SWAP2 POP POP JUMP JUMPDEST PUSH0 PUSH1 0x20 DUP3 DUP5 SUB SLT ISZERO PUSH2 0xA3E JUMPI PUSH2 0xA3D PUSH2 0x824 JUMP JUMPDEST JUMPDEST PUSH0 PUSH2 0xA4B DUP5 DUP3 DUP6 ADD PUSH2 0xA15 JUMP JUMPDEST SWAP2 POP POP SWAP3 SWAP2 POP POP JUMP JUMPDEST PUSH0 DUP3 DUP3 MSTORE PUSH1 0x20 DUP3 ADD SWAP1 POP SWAP3 SWAP2 POP POP JUMP JUMPDEST PUSH32 0x4E6F74206F776E65720000000000000000000000000000000000000000000000 PUSH0 DUP3 ADD MSTORE POP JUMP JUMPDEST PUSH0 PUSH2 0xA98 PUSH1 0x9 DUP4 PUSH2 0xA54 JUMP JUMPDEST SWAP2 POP PUSH2 0xAA3 DUP3 PUSH2 0xA64 JUMP JUMPDEST PUSH1 0x20 DUP3 ADD SWAP1 POP SWAP2 SWAP1 POP JUMP JUMPDEST PUSH0 PUSH1 0x20 DUP3 ADD SWAP1 POP DUP2 DUP2 SUB PUSH0 DUP4 ADD MSTORE PUSH2 0xAC5 DUP2 PUSH2 0xA8C JUMP JUMPDEST SWAP1 POP SWAP2 SWAP1 POP JUMP JUMPDEST PUSH2 0xAD5 DUP2 PUSH2 0x847 JUMP JUMPDEST DUP3 MSTORE POP POP JUMP JUMPDEST PUSH0 PUSH1 0x60 DUP3 ADD SWAP1 POP PUSH2 0xAEE PUSH0 DUP4 ADD DUP7 PUSH2 0xACC JUMP JUMPDEST PUSH2 0xAFB PUSH1 0x20 DUP4 ADD DUP6 PUSH2 0xACC JUMP JUMPDEST PUSH2 0xB08 PUSH1 0x40 DUP4 ADD DUP5 PUSH2 0x8B6 JUMP JUMPDEST SWAP5 SWAP4 POP POP POP POP JUMP JUMPDEST PUSH32 0x4E487B7100000000000000000000000000000000000000000000000000000000 PUSH0 MSTORE PUSH1 0x11 PUSH1 0x4 MSTORE PUSH1 0x24 PUSH0 REVERT JUMPDEST PUSH0 PUSH2 0xB47 DUP3 PUSH2 0x8AD JUMP JUMPDEST SWAP2 POP PUSH2 0xB52 DUP4 PUSH2 0x8AD JUMP JUMPDEST SWAP3 POP DUP3 DUP3 ADD SWAP1 POP DUP1 DUP3 GT ISZERO PUSH2 0xB6A JUMPI PUSH2 0xB69 PUSH2 0xB10 JUMP JUMPDEST JUMPDEST SWAP3 SWAP2 POP POP JUMP JUMPDEST PUSH0 PUSH2 0xB7A DUP3 PUSH2 0x8AD JUMP JUMPDEST SWAP2 POP PUSH2 0xB85 DUP4 PUSH2 0x8AD JUMP JUMPDEST SWAP3 POP DUP3 DUP3 SUB SWAP1 POP DUP2 DUP2 GT ISZERO PUSH2 0xB9D JUMPI PUSH2 0xB9C PUSH2 0xB10 JUMP JUMPDEST JUMPDEST SWAP3 SWAP2 POP POP JUMP JUMPDEST PUSH0 PUSH2 0xBAD DUP3 PUSH2 0x8AD JUMP JUMPDEST SWAP2 POP PUSH2 0xBB8 DUP4 PUSH2 0x8AD JUMP JUMPDEST SWAP3 POP DUP3 DUP3 MUL PUSH2 0xBC6 DUP2 PUSH2 0x8AD JUMP JUMPDEST SWAP2 POP DUP3 DUP3 DIV DUP5 EQ DUP4 ISZERO OR PUSH2 0xBDD JUMPI PUSH2 0xBDC PUSH2 0xB10 JUMP JUMPDEST JUMPDEST POP SWAP3 SWAP2 POP POP JUMP JUMPDEST PUSH32 0x4E487B7100000000000000000000000000000000000000000000000000000000 PUSH0 MSTORE PUSH1 0x12 PUSH1 0x4 MSTORE PUSH1 0x24 PUSH0 REVERT JUMPDEST PUSH0 PUSH2 0xC1B DUP3 PUSH2 0x8AD JUMP JUMPDEST SWAP2 POP PUSH2 0xC26 DUP4 PUSH2 0x8AD JUMP JUMPDEST SWAP3 POP DUP3 PUSH2 0xC36 JUMPI PUSH2 0xC35 PUSH2 0xBE4 JUMP JUMPDEST JUMPDEST DUP3 DUP3 DIV SWAP1 POP SWAP3 SWAP2 POP POP JUMP JUMPDEST PUSH32 0x4E6F204E4654207374616B656400000000000000000000000000000000000000 PUSH0 DUP3 ADD MSTORE POP JUMP JUMPDEST PUSH0 PUSH2 0xC75 PUSH1 0xD DUP4 PUSH2 0xA54 JUMP JUMPDEST SWAP2 POP PUSH2 0xC80 DUP3 PUSH2 0xC41 JUMP JUMPDEST PUSH1 0x20 DUP3 ADD SWAP1 POP SWAP2 SWAP1 POP JUMP JUMPDEST PUSH0 PUSH1 0x20 DUP3 ADD SWAP1 POP DUP2 DUP2 SUB PUSH0 DUP4 ADD MSTORE PUSH2 0xCA2 DUP2 PUSH2 0xC69 JUMP JUMPDEST SWAP1 POP SWAP2 SWAP1 POP JUMP JUMPDEST PUSH0 PUSH1 0x40 DUP3 ADD SWAP1 POP PUSH2 0xCBC PUSH0 DUP4 ADD DUP6 PUSH2 0xACC JUMP JUMPDEST PUSH2 0xCC9 PUSH1 0x20 DUP4 ADD DUP5 PUSH2 0x8B6 JUMP JUMPDEST SWAP4 SWAP3 POP POP POP JUMP JUMPDEST PUSH0 DUP2 ISZERO ISZERO SWAP1 POP SWAP2 SWAP1 POP JUMP JUMPDEST PUSH2 0xCE4 DUP2 PUSH2 0xCD0 JUMP JUMPDEST DUP2 EQ PUSH2 0xCEE JUMPI PUSH0 DUP1 REVERT JUMPDEST POP JUMP JUMPDEST PUSH0 DUP2 MLOAD SWAP1 POP PUSH2 0xCFF DUP2 PUSH2 0xCDB JUMP JUMPDEST SWAP3 SWAP2 POP POP JUMP JUMPDEST PUSH0 PUSH1 0x20 DUP3 DUP5 SUB SLT ISZERO PUSH2 0xD1A JUMPI PUSH2 0xD19 PUSH2 0x824 JUMP JUMPDEST JUMPDEST PUSH0 PUSH2 0xD27 DUP5 DUP3 DUP6 ADD PUSH2 0xCF1 JUMP JUMPDEST SWAP2 POP POP SWAP3 SWAP2 POP POP JUMP JUMPDEST PUSH32 0x526577617264207472616E73666572206661696C656400000000000000000000 PUSH0 DUP3 ADD MSTORE POP JUMP JUMPDEST PUSH0 PUSH2 0xD64 PUSH1 0x16 DUP4 PUSH2 0xA54 JUMP JUMPDEST SWAP2 POP PUSH2 0xD6F DUP3 PUSH2 0xD30 JUMP JUMPDEST PUSH1 0x20 DUP3 ADD SWAP1 POP SWAP2 SWAP1 POP JUMP JUMPDEST PUSH0 PUSH1 0x20 DUP3 ADD SWAP1 POP DUP2 DUP2 SUB PUSH0 DUP4 ADD MSTORE PUSH2 0xD91 DUP2 PUSH2 0xD58 JUMP JUMPDEST SWAP1 POP SWAP2 SWAP1 POP JUMP JUMPDEST PUSH0 PUSH1 0x40 DUP3 ADD SWAP1 POP PUSH2 0xDAB PUSH0 DUP4 ADD DUP6 PUSH2 0x8B6 JUMP JUMPDEST PUSH2 0xDB8 PUSH1 0x20 DUP4 ADD DUP5 PUSH2 0x8B6 JUMP JUMPDEST SWAP4 SWAP3 POP POP POP JUMP JUMPDEST PUSH32 0x5265656E7472616E637947756172643A207265656E7472616E742063616C6C00 PUSH0 DUP3 ADD MSTORE POP JUMP JUMPDEST PUSH0 PUSH2 0xDF3 PUSH1 0x1F DUP4 PUSH2 0xA54 JUMP JUMPDEST SWAP2 POP PUSH2 0xDFE DUP3 PUSH2 0xDBF JUMP JUMPDEST PUSH1 0x20 DUP3 ADD SWAP1 POP SWAP2 SWAP1 POP JUMP JUMPDEST PUSH0 PUSH1 0x20 DUP3 ADD SWAP1 POP DUP2 DUP2 SUB PUSH0 DUP4 ADD MSTORE PUSH2 0xE20 DUP2 PUSH2 0xDE7 JUMP JUMPDEST SWAP1 POP SWAP2 SWAP1 POP JUMP INVALID LOG2 PUSH5 0x6970667358 0x22 SLT KECCAK256 0xDB STOP DUP7 GASLIMIT MOD SWAP9 0xD ADDMOD LOG1 0xB1 0xAF 0xC2 0x2B SWAP12 0x2A SWAP4 0xA8 0x1F 0xE7 DUP4 STATICCALL DUP4 0xCD 0xD2 DUP1 DIV CALLDATACOPY 0x28 PUSH0 0xE9 TSTORE RETURNDATACOPY PUSH5 0x736F6C6343 STOP ADDMOD BYTE STOP CALLER "
				},
				"gasEstimates": {
					"creation": {
						"codeDepositCost": "735400",
						"executionCost": "infinite",
						"totalCost": "infinite"
					},
					"external": {
						"RATE_DENOMINATOR()": "392",
						"calculateReward(address)": "infinite",
						"nftContract()": "infinite",
						"rewardRate()": "2470",
						"stakeNFT(uint256)": "infinite",
						"stakes(address)": "infinite",
						"token()": "infinite",
						"unstakeNFT()": "infinite"
					}
				},
				"methodIdentifiers": {
					"RATE_DENOMINATOR()": "7efad8e0",
					"calculateReward(address)": "d82e3962",
					"nftContract()": "d56d229d",
					"rewardRate()": "7b0a47ee",
					"stakeNFT(uint256)": "6eb604e0",
					"stakes(address)": "16934fc4",
					"token()": "fc0c546a",
					"unstakeNFT()": "e0a747fe"
				}
			},
			"storageLayout": {
				"storage": [
					{
						"astId": 10,
						"contract": "NFTStakingModule.sol:NFTStakingModule",
						"label": "_status",
						"offset": 0,
						"slot": "0",
						"type": "t_uint256"
					},
					{
						"astId": 281,
						"contract": "NFTStakingModule.sol:NFTStakingModule",
						"label": "nftContract",
						"offset": 0,
						"slot": "1",
						"type": "t_contract(IERC721)259"
					},
					{
						"astId": 284,
						"contract": "NFTStakingModule.sol:NFTStakingModule",
						"label": "token",
						"offset": 0,
						"slot": "2",
						"type": "t_contract(IERC20)142"
					},
					{
						"astId": 287,
						"contract": "NFTStakingModule.sol:NFTStakingModule",
						"label": "rewardRate",
						"offset": 0,
						"slot": "3",
						"type": "t_uint256"
					},
					{
						"astId": 302,
						"contract": "NFTStakingModule.sol:NFTStakingModule",
						"label": "stakes",
						"offset": 0,
						"slot": "4",
						"type": "t_mapping(t_address,t_struct(NFTStake)297_storage)"
					}
				],
				"types": {
					"t_address": {
						"encoding": "inplace",
						"label": "address",
						"numberOfBytes": "20"
					},
					"t_contract(IERC20)142": {
						"encoding": "inplace",
						"label": "contract IERC20",
						"numberOfBytes": "20"
					},
					"t_contract(IERC721)259": {
						"encoding": "inplace",
						"label": "contract IERC721",
						"numberOfBytes": "20"
					},
					"t_mapping(t_address,t_struct(NFTStake)297_storage)": {
						"encoding": "mapping",
						"key": "t_address",
						"label": "mapping(address => struct NFTStakingModule.NFTStake)",
						"numberOfBytes": "32",
						"value": "t_struct(NFTStake)297_storage"
					},
					"t_struct(NFTStake)297_storage": {
						"encoding": "inplace",
						"label": "struct NFTStakingModule.NFTStake",
						"members": [
							{
								"astId": 292,
								"contract": "NFTStakingModule.sol:NFTStakingModule",
								"label": "tokenId",
								"offset": 0,
								"slot": "0",
								"type": "t_uint256"
							},
							{
								"astId": 294,
								"contract": "NFTStakingModule.sol:NFTStakingModule",
								"label": "timestamp",
								"offset": 0,
								"slot": "1",
								"type": "t_uint256"
							},
							{
								"astId": 296,
								"contract": "NFTStakingModule.sol:NFTStakingModule",
								"label": "accumulatedReward",
								"offset": 0,
								"slot": "2",
								"type": "t_uint256"
							}
						],
						"numberOfBytes": "96"
					},
					"t_uint256": {
						"encoding": "inplace",
						"label": "uint256",
						"numberOfBytes": "32"
					}
				}
			},
			"userdoc": {
				"kind": "user",
				"methods": {},
				"version": 1
			}
		}
	}
}