{
	"data": {
		"bytecode": {
			"linkReferences": {},
			"object": "608060405234801561000f575f80fd5b50604051610e96380380610e96833981810160405281019061003191906100dc565b60015f819055508060015f6101000a81548173ffffffffffffffffffffffffffffffffffffffff021916908373ffffffffffffffffffffffffffffffffffffffff16021790555050610107565b5f80fd5b5f73ffffffffffffffffffffffffffffffffffffffff82169050919050565b5f6100ab82610082565b9050919050565b6100bb816100a1565b81146100c5575f80fd5b50565b5f815190506100d6816100b2565b92915050565b5f602082840312156100f1576100f061007e565b5b5f6100fe848285016100c8565b91505092915050565b610d82806101145f395ff3fe608060405234801561000f575f80fd5b5060043610610060575f3560e01c80634cfc4d301461006457806380c3780f1461008257806386d1a69f146100b457806395fcb00d146100be578063fc0c546a146100da578063ffa06b2a146100f8575b5f80fd5b61006c610128565b604051610079919061071d565b60405180910390f35b61009c60048036038101906100979190610794565b610130565b6040516100ab939291906107bf565b60405180910390f35b6100bc610156565b005b6100d860048036038101906100d3919061081e565b610394565b005b6100e26105ac565b6040516100ef91906108b7565b60405180910390f35b610112600480360381019061010d9190610794565b6105d1565b60405161011f919061071d565b60405180910390f35b6301e1338081565b6002602052805f5260405f205f91509050805f0154908060010154908060020154905083565b61015e6106af565b5f60025f3373ffffffffffffffffffffffffffffffffffffffff1673ffffffffffffffffffffffffffffffffffffffff1681526020019081526020015f2090505f815f0154116101e3576040517f08c379a00000000000000000000000000000000000000000000000000000000081526004016101da9061092a565b60405180910390fd5b5f6101ed336105d1565b90505f8260020154826102009190610975565b90505f8111610244576040517f08c379a000000000000000000000000000000000000000000000000000000000815260040161023b906109f2565b60405180910390fd5b80836002015f8282546102579190610a10565b9250508190555060015f9054906101000a900473ffffffffffffffffffffffffffffffffffffffff1673ffffffffffffffffffffffffffffffffffffffff1663a9059cbb33836040518363ffffffff1660e01b81526004016102ba929190610a52565b6020604051808303815f875af11580156102d6573d5f803e3d5ffd5b505050506040513d601f19601f820116820180604052508101906102fa9190610aae565b610339576040517f08c379a000000000000000000000000000000000000000000000000000000000815260040161033090610b23565b60405180910390fd5b3373ffffffffffffffffffffffffffffffffffffffff167fc7798891864187665ac6dd119286e44ec13f014527aeeb2b8eb3fd413df931798260405161037f919061071d565b60405180910390a25050506103926106fc565b565b61039c6106af565b5f81116103de576040517f08c379a00000000000000000000000000000000000000000000000000000000081526004016103d590610b8b565b60405180910390fd5b60015f9054906101000a900473ffffffffffffffffffffffffffffffffffffffff1673ffffffffffffffffffffffffffffffffffffffff166323b872dd3330846040518463ffffffff1660e01b815260040161043c93929190610ba9565b6020604051808303815f875af1158015610458573d5f803e3d5ffd5b505050506040513d601f19601f8201168201806040525081019061047c9190610aae565b6104bb576040517f08c379a00000000000000000000000000000000000000000000000000000000081526004016104b290610b23565b60405180910390fd5b5f60025f8473ffffffffffffffffffffffffffffffffffffffff1673ffffffffffffffffffffffffffffffffffffffff1681526020019081526020015f2090505f815f015414610540576040517f08c379a000000000000000000000000000000000000000000000000000000000815260040161053790610c28565b60405180910390fd5b81815f01819055504281600101819055508273ffffffffffffffffffffffffffffffffffffffff167f644b21690d79fb866de971982f0f2ac1f3775377bff4262ff72f2cc9bafdbee883604051610597919061071d565b60405180910390a2506105a86106fc565b5050565b60015f9054906101000a900473ffffffffffffffffffffffffffffffffffffffff1681565b5f8060025f8473ffffffffffffffffffffffffffffffffffffffff1673ffffffffffffffffffffffffffffffffffffffff1681526020019081526020015f206040518060600160405290815f82015481526020016001820154815260200160028201548152505090505f815f0151148061064e5750806020015142105b1561065c575f9150506106aa565b5f81602001514261066d9190610975565b90506301e13380811061068757815f0151925050506106aa565b6301e1338081835f015161069b9190610c46565b6106a59190610cb4565b925050505b919050565b60025f54036106f3576040517f08c379a00000000000000000000000000000000000000000000000000000000081526004016106ea90610d2e565b60405180910390fd5b60025f81905550565b60015f81905550565b5f819050919050565b61071781610705565b82525050565b5f6020820190506107305f83018461070e565b92915050565b5f80fd5b5f73ffffffffffffffffffffffffffffffffffffffff82169050919050565b5f6107638261073a565b9050919050565b61077381610759565b811461077d575f80fd5b50565b5f8135905061078e8161076a565b92915050565b5f602082840312156107a9576107a8610736565b5b5f6107b684828501610780565b91505092915050565b5f6060820190506107d25f83018661070e565b6107df602083018561070e565b6107ec604083018461070e565b949350505050565b6107fd81610705565b8114610807575f80fd5b50565b5f81359050610818816107f4565b92915050565b5f806040838503121561083457610833610736565b5b5f61084185828601610780565b92505060206108528582860161080a565b9150509250929050565b5f819050919050565b5f61087f61087a6108758461073a565b61085c565b61073a565b9050919050565b5f61089082610865565b9050919050565b5f6108a182610886565b9050919050565b6108b181610897565b82525050565b5f6020820190506108ca5f8301846108a8565b92915050565b5f82825260208201905092915050565b7f4e6f2076657374696e67207363686564756c65000000000000000000000000005f82015250565b5f6109146013836108d0565b915061091f826108e0565b602082019050919050565b5f6020820190508181035f83015261094181610908565b9050919050565b7f4e487b71000000000000000000000000000000000000000000000000000000005f52601160045260245ffd5b5f61097f82610705565b915061098a83610705565b92508282039050818111156109a2576109a1610948565b5b92915050565b7f4e6f20746f6b656e7320746f2072656c656173650000000000000000000000005f82015250565b5f6109dc6014836108d0565b91506109e7826109a8565b602082019050919050565b5f6020820190508181035f830152610a09816109d0565b9050919050565b5f610a1a82610705565b9150610a2583610705565b9250828201905080821115610a3d57610a3c610948565b5b92915050565b610a4c81610759565b82525050565b5f604082019050610a655f830185610a43565b610a72602083018461070e565b9392505050565b5f8115159050919050565b610a8d81610a79565b8114610a97575f80fd5b50565b5f81519050610aa881610a84565b92915050565b5f60208284031215610ac357610ac2610736565b5b5f610ad084828501610a9a565b91505092915050565b7f5472616e73666572206661696c656400000000000000000000000000000000005f82015250565b5f610b0d600f836108d0565b9150610b1882610ad9565b602082019050919050565b5f6020820190508181035f830152610b3a81610b01565b9050919050565b7f416d6f756e74206d7573742062652067726561746572207468616e20300000005f82015250565b5f610b75601d836108d0565b9150610b8082610b41565b602082019050919050565b5f6020820190508181035f830152610ba281610b69565b9050919050565b5f606082019050610bbc5f830186610a43565b610bc96020830185610a43565b610bd6604083018461070e565b949350505050565b7f56657374696e6720616c726561647920657869737473000000000000000000005f82015250565b5f610c126016836108d0565b9150610c1d82610bde565b602082019050919050565b5f6020820190508181035f830152610c3f81610c06565b9050919050565b5f610c5082610705565b9150610c5b83610705565b9250828202610c6981610705565b91508282048414831517610c8057610c7f610948565b5b5092915050565b7f4e487b71000000000000000000000000000000000000000000000000000000005f52601260045260245ffd5b5f610cbe82610705565b9150610cc983610705565b925082610cd957610cd8610c87565b5b828204905092915050565b7f5265656e7472616e637947756172643a207265656e7472616e742063616c6c005f82015250565b5f610d18601f836108d0565b9150610d2382610ce4565b602082019050919050565b5f6020820190508181035f830152610d4581610d0c565b905091905056fea2646970667358221220b097518817c516c636ed6567be2495c41db8b7ac1848575b703a56bd6534427b64736f6c634300081a0033",
			"opcodes": "PUSH1 0x80 PUSH1 0x40 MSTORE CALLVALUE DUP1 ISZERO PUSH2 0xF JUMPI PUSH0 DUP1 REVERT JUMPDEST POP PUSH1 0x40 MLOAD PUSH2 0xE96 CODESIZE SUB DUP1 PUSH2 0xE96 DUP4 CODECOPY DUP2 DUP2 ADD PUSH1 0x40 MSTORE DUP2 ADD SWAP1 PUSH2 0x31 SWAP2 SWAP1 PUSH2 0xDC JUMP JUMPDEST PUSH1 0x1 PUSH0 DUP2 SWAP1 SSTORE POP DUP1 PUSH1 0x1 PUSH0 PUSH2 0x100 EXP DUP2 SLOAD DUP2 PUSH20 0xFFFFFFFFFFFFFFFFFFFFFFFFFFFFFFFFFFFFFFFF MUL NOT AND SWAP1 DUP4 PUSH20 0xFFFFFFFFFFFFFFFFFFFFFFFFFFFFFFFFFFFFFFFF AND MUL OR SWAP1 SSTORE POP POP PUSH2 0x107 JUMP JUMPDEST PUSH0 DUP1 REVERT JUMPDEST PUSH0 PUSH20 0xFFFFFFFFFFFFFFFFFFFFFFFFFFFFFFFFFFFFFFFF DUP3 AND SWAP1 POP SWAP2 SWAP1 POP JUMP JUMPDEST PUSH0 PUSH2 0xAB DUP3 PUSH2 0x82 JUMP JUMPDEST SWAP1 POP SWAP2 SWAP1 POP JUMP JUMPDEST PUSH2 0xBB DUP2 PUSH2 0xA1 JUMP JUMPDEST DUP2 EQ PUSH2 0xC5 JUMPI PUSH0 DUP1 REVERT JUMPDEST POP JUMP JUMPDEST PUSH0 DUP2 MLOAD SWAP1 POP PUSH2 0xD6 DUP2 PUSH2 0xB2 JUMP JUMPDEST SWAP3 SWAP2 POP POP JUMP JUMPDEST PUSH0 PUSH1 0x20 DUP3 DUP5 SUB SLT ISZERO PUSH2 0xF1 JUMPI PUSH2 0xF0 PUSH2 0x7E JUMP JUMPDEST JUMPDEST PUSH0 PUSH2 0xFE DUP5 DUP3 DUP6 ADD PUSH2 0xC8 JUMP JUMPDEST SWAP2 POP POP SWAP3 SWAP2 POP POP JUMP JUMPDEST PUSH2 0xD82 DUP1 PUSH2 0x114 PUSH0 CODECOPY PUSH0 RETURN INVALID PUSH1 0x80 PUSH1 0x40 MSTORE CALLVALUE DUP1 ISZERO PUSH2 0xF JUMPI PUSH0 DUP1 REVERT JUMPDEST POP PUSH1 0x4 CALLDATASIZE LT PUSH2 0x60 JUMPI PUSH0 CALLDATALOAD PUSH1 0xE0 SHR DUP1 PUSH4 0x4CFC4D30 EQ PUSH2 0x64 JUMPI DUP1 PUSH4 0x80C3780F EQ PUSH2 0x82 JUMPI DUP1 PUSH4 0x86D1A69F EQ PUSH2 0xB4 JUMPI DUP1 PUSH4 0x95FCB00D EQ PUSH2 0xBE JUMPI DUP1 PUSH4 0xFC0C546A EQ PUSH2 0xDA JUMPI DUP1 PUSH4 0xFFA06B2A EQ PUSH2 0xF8 JUMPI JUMPDEST PUSH0 DUP1 REVERT JUMPDEST PUSH2 0x6C PUSH2 0x128 JUMP JUMPDEST PUSH1 0x40 MLOAD PUSH2 0x79 SWAP2 SWAP1 PUSH2 0x71D JUMP JUMPDEST PUSH1 0x40 MLOAD DUP1 SWAP2 SUB SWAP1 RETURN JUMPDEST PUSH2 0x9C PUSH1 0x4 DUP1 CALLDATASIZE SUB DUP2 ADD SWAP1 PUSH2 0x97 SWAP2 SWAP1 PUSH2 0x794 JUMP JUMPDEST PUSH2 0x130 JUMP JUMPDEST PUSH1 0x40 MLOAD PUSH2 0xAB SWAP4 SWAP3 SWAP2 SWAP1 PUSH2 0x7BF JUMP JUMPDEST PUSH1 0x40 MLOAD DUP1 SWAP2 SUB SWAP1 RETURN JUMPDEST PUSH2 0xBC PUSH2 0x156 JUMP JUMPDEST STOP JUMPDEST PUSH2 0xD8 PUSH1 0x4 DUP1 CALLDATASIZE SUB DUP2 ADD SWAP1 PUSH2 0xD3 SWAP2 SWAP1 PUSH2 0x81E JUMP JUMPDEST PUSH2 0x394 JUMP JUMPDEST STOP JUMPDEST PUSH2 0xE2 PUSH2 0x5AC JUMP JUMPDEST PUSH1 0x40 MLOAD PUSH2 0xEF SWAP2 SWAP1 PUSH2 0x8B7 JUMP JUMPDEST PUSH1 0x40 MLOAD DUP1 SWAP2 SUB SWAP1 RETURN JUMPDEST PUSH2 0x112 PUSH1 0x4 DUP1 CALLDATASIZE SUB DUP2 ADD SWAP1 PUSH2 0x10D SWAP2 SWAP1 PUSH2 0x794 JUMP JUMPDEST PUSH2 0x5D1 JUMP JUMPDEST PUSH1 0x40 MLOAD PUSH2 0x11F SWAP2 SWAP1 PUSH2 0x71D JUMP JUMPDEST PUSH1 0x40 MLOAD DUP1 SWAP2 SUB SWAP1 RETURN JUMPDEST PUSH4 0x1E13380 DUP2 JUMP JUMPDEST PUSH1 0x2 PUSH1 0x20 MSTORE DUP1 PUSH0 MSTORE PUSH1 0x40 PUSH0 KECCAK256 PUSH0 SWAP2 POP SWAP1 POP DUP1 PUSH0 ADD SLOAD SWAP1 DUP1 PUSH1 0x1 ADD SLOAD SWAP1 DUP1 PUSH1 0x2 ADD SLOAD SWAP1 POP DUP4 JUMP JUMPDEST PUSH2 0x15E PUSH2 0x6AF JUMP JUMPDEST PUSH0 PUSH1 0x2 PUSH0 CALLER PUSH20 0xFFFFFFFFFFFFFFFFFFFFFFFFFFFFFFFFFFFFFFFF AND PUSH20 0xFFFFFFFFFFFFFFFFFFFFFFFFFFFFFFFFFFFFFFFF AND DUP2 MSTORE PUSH1 0x20 ADD SWAP1 DUP2 MSTORE PUSH1 0x20 ADD PUSH0 KECCAK256 SWAP1 POP PUSH0 DUP2 PUSH0 ADD SLOAD GT PUSH2 0x1E3 JUMPI PUSH1 0x40 MLOAD PUSH32 0x8C379A000000000000000000000000000000000000000000000000000000000 DUP2 MSTORE PUSH1 0x4 ADD PUSH2 0x1DA SWAP1 PUSH2 0x92A JUMP JUMPDEST PUSH1 0x40 MLOAD DUP1 SWAP2 SUB SWAP1 REVERT JUMPDEST PUSH0 PUSH2 0x1ED CALLER PUSH2 0x5D1 JUMP JUMPDEST SWAP1 POP PUSH0 DUP3 PUSH1 0x2 ADD SLOAD DUP3 PUSH2 0x200 SWAP2 SWAP1 PUSH2 0x975 JUMP JUMPDEST SWAP1 POP PUSH0 DUP2 GT PUSH2 0x244 JUMPI PUSH1 0x40 MLOAD PUSH32 0x8C379A000000000000000000000000000000000000000000000000000000000 DUP2 MSTORE PUSH1 0x4 ADD PUSH2 0x23B SWAP1 PUSH2 0x9F2 JUMP JUMPDEST PUSH1 0x40 MLOAD DUP1 SWAP2 SUB SWAP1 REVERT JUMPDEST DUP1 DUP4 PUSH1 0x2 ADD PUSH0 DUP3 DUP3 SLOAD PUSH2 0x257 SWAP2 SWAP1 PUSH2 0xA10 JUMP JUMPDEST SWAP3 POP POP DUP2 SWAP1 SSTORE POP PUSH1 0x1 PUSH0 SWAP1 SLOAD SWAP1 PUSH2 0x100 EXP SWAP1 DIV PUSH20 0xFFFFFFFFFFFFFFFFFFFFFFFFFFFFFFFFFFFFFFFF AND PUSH20 0xFFFFFFFFFFFFFFFFFFFFFFFFFFFFFFFFFFFFFFFF AND PUSH4 0xA9059CBB CALLER DUP4 PUSH1 0x40 MLOAD DUP4 PUSH4 0xFFFFFFFF AND PUSH1 0xE0 SHL DUP2 MSTORE PUSH1 0x4 ADD PUSH2 0x2BA SWAP3 SWAP2 SWAP1 PUSH2 0xA52 JUMP JUMPDEST PUSH1 0x20 PUSH1 0x40 MLOAD DUP1 DUP4 SUB DUP2 PUSH0 DUP8 GAS CALL ISZERO DUP1 ISZERO PUSH2 0x2D6 JUMPI RETURNDATASIZE PUSH0 DUP1 RETURNDATACOPY RETURNDATASIZE PUSH0 REVERT JUMPDEST POP POP POP POP PUSH1 0x40 MLOAD RETURNDATASIZE PUSH1 0x1F NOT PUSH1 0x1F DUP3 ADD AND DUP3 ADD DUP1 PUSH1 0x40 MSTORE POP DUP2 ADD SWAP1 PUSH2 0x2FA SWAP2 SWAP1 PUSH2 0xAAE JUMP JUMPDEST PUSH2 0x339 JUMPI PUSH1 0x40 MLOAD PUSH32 0x8C379A000000000000000000000000000000000000000000000000000000000 DUP2 MSTORE PUSH1 0x4 ADD PUSH2 0x330 SWAP1 PUSH2 0xB23 JUMP JUMPDEST PUSH1 0x40 MLOAD DUP1 SWAP2 SUB SWAP1 REVERT JUMPDEST CALLER PUSH20 0xFFFFFFFFFFFFFFFFFFFFFFFFFFFFFFFFFFFFFFFF AND PUSH32 0xC7798891864187665AC6DD119286E44EC13F014527AEEB2B8EB3FD413DF93179 DUP3 PUSH1 0x40 MLOAD PUSH2 0x37F SWAP2 SWAP1 PUSH2 0x71D JUMP JUMPDEST PUSH1 0x40 MLOAD DUP1 SWAP2 SUB SWAP1 LOG2 POP POP POP PUSH2 0x392 PUSH2 0x6FC JUMP JUMPDEST JUMP JUMPDEST PUSH2 0x39C PUSH2 0x6AF JUMP JUMPDEST PUSH0 DUP2 GT PUSH2 0x3DE JUMPI PUSH1 0x40 MLOAD PUSH32 0x8C379A000000000000000000000000000000000000000000000000000000000 DUP2 MSTORE PUSH1 0x4 ADD PUSH2 0x3D5 SWAP1 PUSH2 0xB8B JUMP JUMPDEST PUSH1 0x40 MLOAD DUP1 SWAP2 SUB SWAP1 REVERT JUMPDEST PUSH1 0x1 PUSH0 SWAP1 SLOAD SWAP1 PUSH2 0x100 EXP SWAP1 DIV PUSH20 0xFFFFFFFFFFFFFFFFFFFFFFFFFFFFFFFFFFFFFFFF AND PUSH20 0xFFFFFFFFFFFFFFFFFFFFFFFFFFFFFFFFFFFFFFFF AND PUSH4 0x23B872DD CALLER ADDRESS DUP5 PUSH1 0x40 MLOAD DUP5 PUSH4 0xFFFFFFFF AND PUSH1 0xE0 SHL DUP2 MSTORE PUSH1 0x4 ADD PUSH2 0x43C SWAP4 SWAP3 SWAP2 SWAP1 PUSH2 0xBA9 JUMP JUMPDEST PUSH1 0x20 PUSH1 0x40 MLOAD DUP1 DUP4 SUB DUP2 PUSH0 DUP8 GAS CALL ISZERO DUP1 ISZERO PUSH2 0x458 JUMPI RETURNDATASIZE PUSH0 DUP1 RETURNDATACOPY RETURNDATASIZE PUSH0 REVERT JUMPDEST POP POP POP POP PUSH1 0x40 MLOAD RETURNDATASIZE PUSH1 0x1F NOT PUSH1 0x1F DUP3 ADD AND DUP3 ADD DUP1 PUSH1 0x40 MSTORE POP DUP2 ADD SWAP1 PUSH2 0x47C SWAP2 SWAP1 PUSH2 0xAAE JUMP JUMPDEST PUSH2 0x4BB JUMPI PUSH1 0x40 MLOAD PUSH32 0x8C379A000000000000000000000000000000000000000000000000000000000 DUP2 MSTORE PUSH1 0x4 ADD PUSH2 0x4B2 SWAP1 PUSH2 0xB23 JUMP JUMPDEST PUSH1 0x40 MLOAD DUP1 SWAP2 SUB SWAP1 REVERT JUMPDEST PUSH0 PUSH1 0x2 PUSH0 DUP5 PUSH20 0xFFFFFFFFFFFFFFFFFFFFFFFFFFFFFFFFFFFFFFFF AND PUSH20 0xFFFFFFFFFFFFFFFFFFFFFFFFFFFFFFFFFFFFFFFF AND DUP2 MSTORE PUSH1 0x20 ADD SWAP1 DUP2 MSTORE PUSH1 0x20 ADD PUSH0 KECCAK256 SWAP1 POP PUSH0 DUP2 PUSH0 ADD SLOAD EQ PUSH2 0x540 JUMPI PUSH1 0x40 MLOAD PUSH32 0x8C379A000000000000000000000000000000000000000000000000000000000 DUP2 MSTORE PUSH1 0x4 ADD PUSH2 0x537 SWAP1 PUSH2 0xC28 JUMP JUMPDEST PUSH1 0x40 MLOAD DUP1 SWAP2 SUB SWAP1 REVERT JUMPDEST DUP2 DUP2 PUSH0 ADD DUP2 SWAP1 SSTORE POP TIMESTAMP DUP2 PUSH1 0x1 ADD DUP2 SWAP1 SSTORE POP DUP3 PUSH20 0xFFFFFFFFFFFFFFFFFFFFFFFFFFFFFFFFFFFFFFFF AND PUSH32 0x644B21690D79FB866DE971982F0F2AC1F3775377BFF4262FF72F2CC9BAFDBEE8 DUP4 PUSH1 0x40 MLOAD PUSH2 0x597 SWAP2 SWAP1 PUSH2 0x71D JUMP JUMPDEST PUSH1 0x40 MLOAD DUP1 SWAP2 SUB SWAP1 LOG2 POP PUSH2 0x5A8 PUSH2 0x6FC JUMP JUMPDEST POP POP JUMP JUMPDEST PUSH1 0x1 PUSH0 SWAP1 SLOAD SWAP1 PUSH2 0x100 EXP SWAP1 DIV PUSH20 0xFFFFFFFFFFFFFFFFFFFFFFFFFFFFFFFFFFFFFFFF AND DUP2 JUMP JUMPDEST PUSH0 DUP1 PUSH1 0x2 PUSH0 DUP5 PUSH20 0xFFFFFFFFFFFFFFFFFFFFFFFFFFFFFFFFFFFFFFFF AND PUSH20 0xFFFFFFFFFFFFFFFFFFFFFFFFFFFFFFFFFFFFFFFF AND DUP2 MSTORE PUSH1 0x20 ADD SWAP1 DUP2 MSTORE PUSH1 0x20 ADD PUSH0 KECCAK256 PUSH1 0x40 MLOAD DUP1 PUSH1 0x60 ADD PUSH1 0x40 MSTORE SWAP1 DUP2 PUSH0 DUP3 ADD SLOAD DUP2 MSTORE PUSH1 0x20 ADD PUSH1 0x1 DUP3 ADD SLOAD DUP2 MSTORE PUSH1 0x20 ADD PUSH1 0x2 DUP3 ADD SLOAD DUP2 MSTORE POP POP SWAP1 POP PUSH0 DUP2 PUSH0 ADD MLOAD EQ DUP1 PUSH2 0x64E JUMPI POP DUP1 PUSH1 0x20 ADD MLOAD TIMESTAMP LT JUMPDEST ISZERO PUSH2 0x65C JUMPI PUSH0 SWAP2 POP POP PUSH2 0x6AA JUMP JUMPDEST PUSH0 DUP2 PUSH1 0x20 ADD MLOAD TIMESTAMP PUSH2 0x66D SWAP2 SWAP1 PUSH2 0x975 JUMP JUMPDEST SWAP1 POP PUSH4 0x1E13380 DUP2 LT PUSH2 0x687 JUMPI DUP2 PUSH0 ADD MLOAD SWAP3 POP POP POP PUSH2 0x6AA JUMP JUMPDEST PUSH4 0x1E13380 DUP2 DUP4 PUSH0 ADD MLOAD PUSH2 0x69B SWAP2 SWAP1 PUSH2 0xC46 JUMP JUMPDEST PUSH2 0x6A5 SWAP2 SWAP1 PUSH2 0xCB4 JUMP JUMPDEST SWAP3 POP POP POP JUMPDEST SWAP2 SWAP1 POP JUMP JUMPDEST PUSH1 0x2 PUSH0 SLOAD SUB PUSH2 0x6F3 JUMPI PUSH1 0x40 MLOAD PUSH32 0x8C379A000000000000000000000000000000000000000000000000000000000 DUP2 MSTORE PUSH1 0x4 ADD PUSH2 0x6EA SWAP1 PUSH2 0xD2E JUMP JUMPDEST PUSH1 0x40 MLOAD DUP1 SWAP2 SUB SWAP1 REVERT JUMPDEST PUSH1 0x2 PUSH0 DUP2 SWAP1 SSTORE POP JUMP JUMPDEST PUSH1 0x1 PUSH0 DUP2 SWAP1 SSTORE POP JUMP JUMPDEST PUSH0 DUP2 SWAP1 POP SWAP2 SWAP1 POP JUMP JUMPDEST PUSH2 0x717 DUP2 PUSH2 0x705 JUMP JUMPDEST DUP3 MSTORE POP POP JUMP JUMPDEST PUSH0 PUSH1 0x20 DUP3 ADD SWAP1 POP PUSH2 0x730 PUSH0 DUP4 ADD DUP5 PUSH2 0x70E JUMP JUMPDEST SWAP3 SWAP2 POP POP JUMP JUMPDEST PUSH0 DUP1 REVERT JUMPDEST PUSH0 PUSH20 0xFFFFFFFFFFFFFFFFFFFFFFFFFFFFFFFFFFFFFFFF DUP3 AND SWAP1 POP SWAP2 SWAP1 POP JUMP JUMPDEST PUSH0 PUSH2 0x763 DUP3 PUSH2 0x73A JUMP JUMPDEST SWAP1 POP SWAP2 SWAP1 POP JUMP JUMPDEST PUSH2 0x773 DUP2 PUSH2 0x759 JUMP JUMPDEST DUP2 EQ PUSH2 0x77D JUMPI PUSH0 DUP1 REVERT JUMPDEST POP JUMP JUMPDEST PUSH0 DUP2 CALLDATALOAD SWAP1 POP PUSH2 0x78E DUP2 PUSH2 0x76A JUMP JUMPDEST SWAP3 SWAP2 POP POP JUMP JUMPDEST PUSH0 PUSH1 0x20 DUP3 DUP5 SUB SLT ISZERO PUSH2 0x7A9 JUMPI PUSH2 0x7A8 PUSH2 0x736 JUMP JUMPDEST JUMPDEST PUSH0 PUSH2 0x7B6 DUP5 DUP3 DUP6 ADD PUSH2 0x780 JUMP JUMPDEST SWAP2 POP POP SWAP3 SWAP2 POP POP JUMP JUMPDEST PUSH0 PUSH1 0x60 DUP3 ADD SWAP1 POP PUSH2 0x7D2 PUSH0 DUP4 ADD DUP7 PUSH2 0x70E JUMP JUMPDEST PUSH2 0x7DF PUSH1 0x20 DUP4 ADD DUP6 PUSH2 0x70E JUMP JUMPDEST PUSH2 0x7EC PUSH1 0x40 DUP4 ADD DUP5 PUSH2 0x70E JUMP JUMPDEST SWAP5 SWAP4 POP POP POP POP JUMP JUMPDEST PUSH2 0x7FD DUP2 PUSH2 0x705 JUMP JUMPDEST DUP2 EQ PUSH2 0x807 JUMPI PUSH0 DUP1 REVERT JUMPDEST POP JUMP JUMPDEST PUSH0 DUP2 CALLDATALOAD SWAP1 POP PUSH2 0x818 DUP2 PUSH2 0x7F4 JUMP JUMPDEST SWAP3 SWAP2 POP POP JUMP JUMPDEST PUSH0 DUP1 PUSH1 0x40 DUP4 DUP6 SUB SLT ISZERO PUSH2 0x834 JUMPI PUSH2 0x833 PUSH2 0x736 JUMP JUMPDEST JUMPDEST PUSH0 PUSH2 0x841 DUP6 DUP3 DUP7 ADD PUSH2 0x780 JUMP JUMPDEST SWAP3 POP POP PUSH1 0x20 PUSH2 0x852 DUP6 DUP3 DUP7 ADD PUSH2 0x80A JUMP JUMPDEST SWAP2 POP POP SWAP3 POP SWAP3 SWAP1 POP JUMP JUMPDEST PUSH0 DUP2 SWAP1 POP SWAP2 SWAP1 POP JUMP JUMPDEST PUSH0 PUSH2 0x87F PUSH2 0x87A PUSH2 0x875 DUP5 PUSH2 0x73A JUMP JUMPDEST PUSH2 0x85C JUMP JUMPDEST PUSH2 0x73A JUMP JUMPDEST SWAP1 POP SWAP2 SWAP1 POP JUMP JUMPDEST PUSH0 PUSH2 0x890 DUP3 PUSH2 0x865 JUMP JUMPDEST SWAP1 POP SWAP2 SWAP1 POP JUMP JUMPDEST PUSH0 PUSH2 0x8A1 DUP3 PUSH2 0x886 JUMP JUMPDEST SWAP1 POP SWAP2 SWAP1 POP JUMP JUMPDEST PUSH2 0x8B1 DUP2 PUSH2 0x897 JUMP JUMPDEST DUP3 MSTORE POP POP JUMP JUMPDEST PUSH0 PUSH1 0x20 DUP3 ADD SWAP1 POP PUSH2 0x8CA PUSH0 DUP4 ADD DUP5 PUSH2 0x8A8 JUMP JUMPDEST SWAP3 SWAP2 POP POP JUMP JUMPDEST PUSH0 DUP3 DUP3 MSTORE PUSH1 0x20 DUP3 ADD SWAP1 POP SWAP3 SWAP2 POP POP JUMP JUMPDEST PUSH32 0x4E6F2076657374696E67207363686564756C6500000000000000000000000000 PUSH0 DUP3 ADD MSTORE POP JUMP JUMPDEST PUSH0 PUSH2 0x914 PUSH1 0x13 DUP4 PUSH2 0x8D0 JUMP JUMPDEST SWAP2 POP PUSH2 0x91F DUP3 PUSH2 0x8E0 JUMP JUMPDEST PUSH1 0x20 DUP3 ADD SWAP1 POP SWAP2 SWAP1 POP JUMP JUMPDEST PUSH0 PUSH1 0x20 DUP3 ADD SWAP1 POP DUP2 DUP2 SUB PUSH0 DUP4 ADD MSTORE PUSH2 0x941 DUP2 PUSH2 0x908 JUMP JUMPDEST SWAP1 POP SWAP2 SWAP1 POP JUMP JUMPDEST PUSH32 0x4E487B7100000000000000000000000000000000000000000000000000000000 PUSH0 MSTORE PUSH1 0x11 PUSH1 0x4 MSTORE PUSH1 0x24 PUSH0 REVERT JUMPDEST PUSH0 PUSH2 0x97F DUP3 PUSH2 0x705 JUMP JUMPDEST SWAP2 POP PUSH2 0x98A DUP4 PUSH2 0x705 JUMP JUMPDEST SWAP3 POP DUP3 DUP3 SUB SWAP1 POP DUP2 DUP2 GT ISZERO PUSH2 0x9A2 JUMPI PUSH2 0x9A1 PUSH2 0x948 JUMP JUMPDEST JUMPDEST SWAP3 SWAP2 POP POP JUMP JUMPDEST PUSH32 0x4E6F20746F6B656E7320746F2072656C65617365000000000000000000000000 PUSH0 DUP3 ADD MSTORE POP JUMP JUMPDEST PUSH0 PUSH2 0x9DC PUSH1 0x14 DUP4 PUSH2 0x8D0 JUMP JUMPDEST SWAP2 POP PUSH2 0x9E7 DUP3 PUSH2 0x9A8 JUMP JUMPDEST PUSH1 0x20 DUP3 ADD SWAP1 POP SWAP2 SWAP1 POP JUMP JUMPDEST PUSH0 PUSH1 0x20 DUP3 ADD SWAP1 POP DUP2 DUP2 SUB PUSH0 DUP4 ADD MSTORE PUSH2 0xA09 DUP2 PUSH2 0x9D0 JUMP JUMPDEST SWAP1 POP SWAP2 SWAP1 POP JUMP JUMPDEST PUSH0 PUSH2 0xA1A DUP3 PUSH2 0x705 JUMP JUMPDEST SWAP2 POP PUSH2 0xA25 DUP4 PUSH2 0x705 JUMP JUMPDEST SWAP3 POP DUP3 DUP3 ADD SWAP1 POP DUP1 DUP3 GT ISZERO PUSH2 0xA3D JUMPI PUSH2 0xA3C PUSH2 0x948 JUMP JUMPDEST JUMPDEST SWAP3 SWAP2 POP POP JUMP JUMPDEST PUSH2 0xA4C DUP2 PUSH2 0x759 JUMP JUMPDEST DUP3 MSTORE POP POP JUMP JUMPDEST PUSH0 PUSH1 0x40 DUP3 ADD SWAP1 POP PUSH2 0xA65 PUSH0 DUP4 ADD DUP6 PUSH2 0xA43 JUMP JUMPDEST PUSH2 0xA72 PUSH1 0x20 DUP4 ADD DUP5 PUSH2 0x70E JUMP JUMPDEST SWAP4 SWAP3 POP POP POP JUMP JUMPDEST PUSH0 DUP2 ISZERO ISZERO SWAP1 POP SWAP2 SWAP1 POP JUMP JUMPDEST PUSH2 0xA8D DUP2 PUSH2 0xA79 JUMP JUMPDEST DUP2 EQ PUSH2 0xA97 JUMPI PUSH0 DUP1 REVERT JUMPDEST POP JUMP JUMPDEST PUSH0 DUP2 MLOAD SWAP1 POP PUSH2 0xAA8 DUP2 PUSH2 0xA84 JUMP JUMPDEST SWAP3 SWAP2 POP POP JUMP JUMPDEST PUSH0 PUSH1 0x20 DUP3 DUP5 SUB SLT ISZERO PUSH2 0xAC3 JUMPI PUSH2 0xAC2 PUSH2 0x736 JUMP JUMPDEST JUMPDEST PUSH0 PUSH2 0xAD0 DUP5 DUP3 DUP6 ADD PUSH2 0xA9A JUMP JUMPDEST SWAP2 POP POP SWAP3 SWAP2 POP POP JUMP JUMPDEST PUSH32 0x5472616E73666572206661696C65640000000000000000000000000000000000 PUSH0 DUP3 ADD MSTORE POP JUMP JUMPDEST PUSH0 PUSH2 0xB0D PUSH1 0xF DUP4 PUSH2 0x8D0 JUMP JUMPDEST SWAP2 POP PUSH2 0xB18 DUP3 PUSH2 0xAD9 JUMP JUMPDEST PUSH1 0x20 DUP3 ADD SWAP1 POP SWAP2 SWAP1 POP JUMP JUMPDEST PUSH0 PUSH1 0x20 DUP3 ADD SWAP1 POP DUP2 DUP2 SUB PUSH0 DUP4 ADD MSTORE PUSH2 0xB3A DUP2 PUSH2 0xB01 JUMP JUMPDEST SWAP1 POP SWAP2 SWAP1 POP JUMP JUMPDEST PUSH32 0x416D6F756E74206D7573742062652067726561746572207468616E2030000000 PUSH0 DUP3 ADD MSTORE POP JUMP JUMPDEST PUSH0 PUSH2 0xB75 PUSH1 0x1D DUP4 PUSH2 0x8D0 JUMP JUMPDEST SWAP2 POP PUSH2 0xB80 DUP3 PUSH2 0xB41 JUMP JUMPDEST PUSH1 0x20 DUP3 ADD SWAP1 POP SWAP2 SWAP1 POP JUMP JUMPDEST PUSH0 PUSH1 0x20 DUP3 ADD SWAP1 POP DUP2 DUP2 SUB PUSH0 DUP4 ADD MSTORE PUSH2 0xBA2 DUP2 PUSH2 0xB69 JUMP JUMPDEST SWAP1 POP SWAP2 SWAP1 POP JUMP JUMPDEST PUSH0 PUSH1 0x60 DUP3 ADD SWAP1 POP PUSH2 0xBBC PUSH0 DUP4 ADD DUP7 PUSH2 0xA43 JUMP JUMPDEST PUSH2 0xBC9 PUSH1 0x20 DUP4 ADD DUP6 PUSH2 0xA43 JUMP JUMPDEST PUSH2 0xBD6 PUSH1 0x40 DUP4 ADD DUP5 PUSH2 0x70E JUMP JUMPDEST SWAP5 SWAP4 POP POP POP POP JUMP JUMPDEST PUSH32 0x56657374696E6720616C72656164792065786973747300000000000000000000 PUSH0 DUP3 ADD MSTORE POP JUMP JUMPDEST PUSH0 PUSH2 0xC12 PUSH1 0x16 DUP4 PUSH2 0x8D0 JUMP JUMPDEST SWAP2 POP PUSH2 0xC1D DUP3 PUSH2 0xBDE JUMP JUMPDEST PUSH1 0x20 DUP3 ADD SWAP1 POP SWAP2 SWAP1 POP JUMP JUMPDEST PUSH0 PUSH1 0x20 DUP3 ADD SWAP1 POP DUP2 DUP2 SUB PUSH0 DUP4 ADD MSTORE PUSH2 0xC3F DUP2 PUSH2 0xC06 JUMP JUMPDEST SWAP1 POP SWAP2 SWAP1 POP JUMP JUMPDEST PUSH0 PUSH2 0xC50 DUP3 PUSH2 0x705 JUMP JUMPDEST SWAP2 POP PUSH2 0xC5B DUP4 PUSH2 0x705 JUMP JUMPDEST SWAP3 POP DUP3 DUP3 MUL PUSH2 0xC69 DUP2 PUSH2 0x705 JUMP JUMPDEST SWAP2 POP DUP3 DUP3 DIV DUP5 EQ DUP4 ISZERO OR PUSH2 0xC80 JUMPI PUSH2 0xC7F PUSH2 0x948 JUMP JUMPDEST JUMPDEST POP SWAP3 SWAP2 POP POP JUMP JUMPDEST PUSH32 0x4E487B7100000000000000000000000000000000000000000000000000000000 PUSH0 MSTORE PUSH1 0x12 PUSH1 0x4 MSTORE PUSH1 0x24 PUSH0 REVERT JUMPDEST PUSH0 PUSH2 0xCBE DUP3 PUSH2 0x705 JUMP JUMPDEST SWAP2 POP PUSH2 0xCC9 DUP4 PUSH2 0x705 JUMP JUMPDEST SWAP3 POP DUP3 PUSH2 0xCD9 JUMPI PUSH2 0xCD8 PUSH2 0xC87 JUMP JUMPDEST JUMPDEST DUP3 DUP3 DIV SWAP1 POP SWAP3 SWAP2 POP POP JUMP JUMPDEST PUSH32 0x5265656E7472616E637947756172643A207265656E7472616E742063616C6C00 PUSH0 DUP3 ADD MSTORE POP JUMP JUMPDEST PUSH0 PUSH2 0xD18 PUSH1 0x1F DUP4 PUSH2 0x8D0 JUMP JUMPDEST SWAP2 POP PUSH2 0xD23 DUP3 PUSH2 0xCE4 JUMP JUMPDEST PUSH1 0x20 DUP3 ADD SWAP1 POP SWAP2 SWAP1 POP JUMP JUMPDEST PUSH0 PUSH1 0x20 DUP3 ADD SWAP1 POP DUP2 DUP2 SUB PUSH0 DUP4 ADD MSTORE PUSH2 0xD45 DUP2 PUSH2 0xD0C JUMP JUMPDEST SWAP1 POP SWAP2 SWAP1 POP JUMP INVALID LOG2 PUSH5 0x6970667358 0x22 SLT KECCAK256 0xB0 SWAP8 MLOAD DUP9 OR 0xC5 AND 0xC6 CALLDATASIZE 0xED PUSH6 0x67BE2495C41D 0xB8 0xB7 0xAC XOR BASEFEE JUMPI JUMPDEST PUSH17 0x3A56BD6534427B64736F6C634300081A00 CALLER "
		},
		"gasEstimates": {
			"creation": {
				"codeDepositCost": "691600",
				"executionCost": "infinite",
				"totalCost": "infinite"
			},
			"external": {
				"VESTING_DURATION()": "303",
				"addVesting(address,uint256)": "infinite",
				"calculateVestedAmount(address)": "infinite",
				"release()": "infinite",
				"schedules(address)": "infinite",
				"token()": "infinite"
			}
		},
		"methodIdentifiers": {
			"VESTING_DURATION()": "4cfc4d30",
			"addVesting(address,uint256)": "95fcb00d",
			"calculateVestedAmount(address)": "ffa06b2a",
			"release()": "86d1a69f",
			"schedules(address)": "80c3780f",
			"token()": "fc0c546a"
		}
	},
	"abi": [
		{
			"inputs": [
				{
					"internalType": "address",
					"name": "_token",
					"type": "address"
				}
			],
			"stateMutability": "nonpayable",
			"type": "constructor"
		},
		{
			"anonymous": false,
			"inputs": [
				{
					"indexed": true,
					"internalType": "address",
					"name": "beneficiary",
					"type": "address"
				},
				{
					"indexed": false,
					"internalType": "uint256",
					"name": "amount",
					"type": "uint256"
				}
			],
			"name": "TokensReleased",
			"type": "event"
		},
		{
			"anonymous": false,
			"inputs": [
				{
					"indexed": true,
					"internalType": "address",
					"name": "beneficiary",
					"type": "address"
				},
				{
					"indexed": false,
					"internalType": "uint256",
					"name": "amount",
					"type": "uint256"
				}
			],
			"name": "VestingAdded",
			"type": "event"
		},
		{
			"inputs": [],
			"name": "VESTING_DURATION",
			"outputs": [
				{
					"internalType": "uint256",
					"name": "",
					"type": "uint256"
				}
			],
			"stateMutability": "view",
			"type": "function"
		},
		{
			"inputs": [
				{
					"internalType": "address",
					"name": "beneficiary",
					"type": "address"
				},
				{
					"internalType": "uint256",
					"name": "amount",
					"type": "uint256"
				}
			],
			"name": "addVesting",
			"outputs": [],
			"stateMutability": "nonpayable",
			"type": "function"
		},
		{
			"inputs": [
				{
					"internalType": "address",
					"name": "beneficiary",
					"type": "address"
				}
			],
			"name": "calculateVestedAmount",
			"outputs": [
				{
					"internalType": "uint256",
					"name": "",
					"type": "uint256"
				}
			],
			"stateMutability": "view",
			"type": "function"
		},
		{
			"inputs": [],
			"name": "release",
			"outputs": [],
			"stateMutability": "nonpayable",
			"type": "function"
		},
		{
			"inputs": [
				{
					"internalType": "address",
					"name": "",
					"type": "address"
				}
			],
			"name": "schedules",
			"outputs": [
				{
					"internalType": "uint256",
					"name": "totalAmount",
					"type": "uint256"
				},
				{
					"internalType": "uint256",
					"name": "startTime",
					"type": "uint256"
				},
				{
					"internalType": "uint256",
					"name": "releasedAmount",
					"type": "uint256"
				}
			],
			"stateMutability": "view",
			"type": "function"
		},
		{
			"inputs": [],
			"name": "token",
			"outputs": [
				{
					"internalType": "contract IERC20",
					"name": "",
					"type": "address"
				}
			],
			"stateMutability": "view",
			"type": "function"
		}
	]
}